{
  "_format": "hh-sol-artifact-1",
  "contractName": "DecentralizedBank",
  "sourceName": "contracts/DecentralizedBank.sol",
  "abi": [
    {
      "inputs": [],
      "stateMutability": "nonpayable",
      "type": "constructor"
    },
    {
      "inputs": [],
      "name": "ECDSAInvalidSignature",
      "type": "error"
    },
    {
      "inputs": [
        {
          "internalType": "uint256",
          "name": "length",
          "type": "uint256"
        }
      ],
      "name": "ECDSAInvalidSignatureLength",
      "type": "error"
    },
    {
      "inputs": [
        {
          "internalType": "bytes32",
          "name": "s",
          "type": "bytes32"
        }
      ],
      "name": "ECDSAInvalidSignatureS",
      "type": "error"
    },
    {
      "anonymous": false,
      "inputs": [
        {
          "indexed": true,
          "internalType": "address",
          "name": "user",
          "type": "address"
        },
        {
          "indexed": false,
          "internalType": "uint256",
          "name": "amount",
          "type": "uint256"
        }
      ],
      "name": "Deposit",
      "type": "event"
    },
    {
      "anonymous": false,
      "inputs": [
        {
          "indexed": true,
          "internalType": "address",
          "name": "user",
          "type": "address"
        },
        {
          "indexed": false,
          "internalType": "uint256",
          "name": "amount",
          "type": "uint256"
        },
        {
          "indexed": false,
          "internalType": "uint256",
          "name": "interestPaid",
          "type": "uint256"
        }
      ],
      "name": "LoanRepaid",
      "type": "event"
    },
    {
      "anonymous": false,
      "inputs": [
        {
          "indexed": true,
          "internalType": "address",
          "name": "user",
          "type": "address"
        },
        {
          "indexed": false,
          "internalType": "uint256",
          "name": "amount",
          "type": "uint256"
        },
        {
          "indexed": false,
          "internalType": "uint256",
          "name": "interestRate",
          "type": "uint256"
        }
      ],
      "name": "LoanTaken",
      "type": "event"
    },
    {
      "anonymous": false,
      "inputs": [
        {
          "indexed": true,
          "internalType": "address",
          "name": "from",
          "type": "address"
        },
        {
          "indexed": true,
          "internalType": "address",
          "name": "to",
          "type": "address"
        },
        {
          "indexed": false,
          "internalType": "uint256",
          "name": "amount",
          "type": "uint256"
        }
      ],
      "name": "Transfer",
      "type": "event"
    },
    {
      "anonymous": false,
      "inputs": [
        {
          "indexed": true,
          "internalType": "address",
          "name": "user",
          "type": "address"
        },
        {
          "indexed": false,
          "internalType": "string",
          "name": "name",
          "type": "string"
        }
      ],
      "name": "UserRegistered",
      "type": "event"
    },
    {
      "anonymous": false,
      "inputs": [
        {
          "indexed": true,
          "internalType": "address",
          "name": "user",
          "type": "address"
        },
        {
          "indexed": false,
          "internalType": "uint256",
          "name": "amount",
          "type": "uint256"
        }
      ],
      "name": "Withdraw",
      "type": "event"
    },
    {
      "inputs": [
        {
          "internalType": "address",
          "name": "_user",
          "type": "address"
        },
        {
          "internalType": "uint256",
          "name": "_amount",
          "type": "uint256"
        },
        {
          "internalType": "bytes",
          "name": "_signature",
          "type": "bytes"
        }
      ],
      "name": "adminWithdrawUserFunds",
      "outputs": [],
      "stateMutability": "nonpayable",
      "type": "function"
    },
    {
      "inputs": [],
      "name": "bankAdmin",
      "outputs": [
        {
          "internalType": "address",
          "name": "",
          "type": "address"
        }
      ],
      "stateMutability": "view",
      "type": "function"
    },
    {
      "inputs": [
        {
          "internalType": "address",
          "name": "_user",
          "type": "address"
        }
      ],
      "name": "calculateInterest",
      "outputs": [
        {
          "internalType": "uint256",
          "name": "",
          "type": "uint256"
        }
      ],
      "stateMutability": "view",
      "type": "function"
    },
    {
      "inputs": [],
      "name": "deposit",
      "outputs": [],
      "stateMutability": "payable",
      "type": "function"
    },
    {
      "inputs": [],
      "name": "fundBank",
      "outputs": [],
      "stateMutability": "payable",
      "type": "function"
    },
    {
      "inputs": [
        {
          "internalType": "address",
          "name": "",
          "type": "address"
        }
      ],
      "name": "nonces",
      "outputs": [
        {
          "internalType": "uint256",
          "name": "",
          "type": "uint256"
        }
      ],
      "stateMutability": "view",
      "type": "function"
    },
    {
      "inputs": [
        {
          "internalType": "string",
          "name": "_name",
          "type": "string"
        }
      ],
      "name": "registerUser",
      "outputs": [],
      "stateMutability": "nonpayable",
      "type": "function"
    },
    {
      "inputs": [],
      "name": "repayLoan",
      "outputs": [],
      "stateMutability": "nonpayable",
      "type": "function"
    },
    {
      "inputs": [
        {
          "internalType": "uint256",
          "name": "_amount",
          "type": "uint256"
        },
        {
          "internalType": "uint256",
          "name": "_interestRate",
          "type": "uint256"
        },
        {
          "internalType": "bytes",
          "name": "_signature",
          "type": "bytes"
        }
      ],
      "name": "takeLoan",
      "outputs": [],
      "stateMutability": "nonpayable",
      "type": "function"
    },
    {
      "inputs": [],
      "name": "totalBankReserve",
      "outputs": [
        {
          "internalType": "uint256",
          "name": "",
          "type": "uint256"
        }
      ],
      "stateMutability": "view",
      "type": "function"
    },
    {
      "inputs": [
        {
          "internalType": "address",
          "name": "_to",
          "type": "address"
        },
        {
          "internalType": "uint256",
          "name": "_amount",
          "type": "uint256"
        }
      ],
      "name": "transfer",
      "outputs": [],
      "stateMutability": "nonpayable",
      "type": "function"
    },
    {
      "inputs": [
        {
          "internalType": "address",
          "name": "",
          "type": "address"
        }
      ],
      "name": "users",
      "outputs": [
        {
          "internalType": "bool",
          "name": "isRegistered",
          "type": "bool"
        },
        {
          "internalType": "string",
          "name": "name",
          "type": "string"
        },
        {
          "internalType": "uint256",
          "name": "balance",
          "type": "uint256"
        },
        {
          "internalType": "uint256",
          "name": "loanAmount",
          "type": "uint256"
        },
        {
          "internalType": "uint256",
          "name": "loanTimestamp",
          "type": "uint256"
        },
        {
          "internalType": "uint256",
          "name": "interestRate",
          "type": "uint256"
        }
      ],
      "stateMutability": "view",
      "type": "function"
    },
    {
      "inputs": [
        {
          "internalType": "uint256",
          "name": "_amount",
          "type": "uint256"
        }
      ],
      "name": "withdraw",
      "outputs": [],
      "stateMutability": "nonpayable",
      "type": "function"
    },
    {
      "inputs": [
        {
          "internalType": "uint256",
          "name": "_amount",
          "type": "uint256"
        }
      ],
      "name": "withdrawReserve",
      "outputs": [],
      "stateMutability": "nonpayable",
      "type": "function"
    }
  ],
  "bytecode": "0x6080604052348015600e575f5ffd5b50335f5f6101000a81548173ffffffffffffffffffffffffffffffffffffffff021916908373ffffffffffffffffffffffffffffffffffffffff16021790555061311d8061005b5f395ff3fe6080604052600436106100dc575f3560e01c8063a9059cbb1161007e578063d12fb6ce11610058578063d12fb6ce14610263578063e11932cf1461028b578063f7e9b642146102c7578063f966ade7146102f1576100dc565b8063a9059cbb14610227578063aa07b2ff1461024f578063d0e30db014610259576100dc565b80633e696f38116100ba5780633e696f381461015a578063704f1b94146101825780637ecebe00146101aa578063a87430ba146101e6576100dc565b806302b71d7f146100e05780631aa9a27f146101085780632e1a7d4d14610132575b5f5ffd5b3480156100eb575f5ffd5b5061010660048036038101906101019190611feb565b610307565b005b348015610113575f5ffd5b5061011c610671565b6040516101299190612066565b60405180910390f35b34801561013d575f5ffd5b506101586004803603810190610153919061207f565b610695565b005b348015610165575f5ffd5b50610180600480360381019061017b919061207f565b6108f3565b005b34801561018d575f5ffd5b506101a860048036038101906101a39190612148565b610a8a565b005b3480156101b5575f5ffd5b506101d060048036038101906101cb919061218f565b610c32565b6040516101dd91906121c9565b60405180910390f35b3480156101f1575f5ffd5b5061020c6004803603810190610207919061218f565b610c47565b60405161021e9695949392919061225c565b60405180910390f35b348015610232575f5ffd5b5061024d600480360381019061024891906122c2565b610d11565b005b610257610fbf565b005b610261610fd9565b005b34801561026e575f5ffd5b5061028960048036038101906102849190612300565b61114c565b005b348015610296575f5ffd5b506102b160048036038101906102ac919061218f565b6115ce565b6040516102be91906121c9565b60405180910390f35b3480156102d2575f5ffd5b506102db61174f565b6040516102e891906121c9565b60405180910390f35b3480156102fc575f5ffd5b50610305611755565b005b5f5f9054906101000a900473ffffffffffffffffffffffffffffffffffffffff1673ffffffffffffffffffffffffffffffffffffffff163373ffffffffffffffffffffffffffffffffffffffff1614610395576040517f08c379a000000000000000000000000000000000000000000000000000000000815260040161038c906123b6565b60405180910390fd5b8160015f8573ffffffffffffffffffffffffffffffffffffffff1673ffffffffffffffffffffffffffffffffffffffff1681526020019081526020015f20600201541015610418576040517f08c379a000000000000000000000000000000000000000000000000000000000815260040161040f9061241e565b60405180910390fd5b5f60025f8573ffffffffffffffffffffffffffffffffffffffff1673ffffffffffffffffffffffffffffffffffffffff1681526020019081526020015f205490505f84848360405160200161046f939291906124f5565b6040516020818303038152906040528051906020012090505f61049182611b16565b90505f6104a78583611b4990919063ffffffff16565b90508673ffffffffffffffffffffffffffffffffffffffff168173ffffffffffffffffffffffffffffffffffffffff1614610517576040517f08c379a000000000000000000000000000000000000000000000000000000000815260040161050e90612586565b60405180910390fd5b60025f8873ffffffffffffffffffffffffffffffffffffffff1673ffffffffffffffffffffffffffffffffffffffff1681526020019081526020015f205f815480929190610564906125d1565b91905055508560015f8973ffffffffffffffffffffffffffffffffffffffff1673ffffffffffffffffffffffffffffffffffffffff1681526020019081526020015f206002015f8282546105b89190612618565b925050819055505f3373ffffffffffffffffffffffffffffffffffffffff16876040516105e490612678565b5f6040518083038185875af1925050503d805f811461061e576040519150601f19603f3d011682016040523d82523d5f602084013e610623565b606091505b5050905080610667576040517f08c379a000000000000000000000000000000000000000000000000000000000815260040161065e906126d6565b60405180910390fd5b5050505050505050565b5f5f9054906101000a900473ffffffffffffffffffffffffffffffffffffffff1681565b60015f3373ffffffffffffffffffffffffffffffffffffffff1673ffffffffffffffffffffffffffffffffffffffff1681526020019081526020015f205f015f9054906101000a900460ff16610720576040517f08c379a00000000000000000000000000000000000000000000000000000000081526004016107179061273e565b60405180910390fd5b8060015f3373ffffffffffffffffffffffffffffffffffffffff1673ffffffffffffffffffffffffffffffffffffffff1681526020019081526020015f206002015410156107a3576040517f08c379a000000000000000000000000000000000000000000000000000000000815260040161079a906127a6565b60405180910390fd5b8060015f3373ffffffffffffffffffffffffffffffffffffffff1673ffffffffffffffffffffffffffffffffffffffff1681526020019081526020015f206002015f8282546107f29190612618565b925050819055505f3373ffffffffffffffffffffffffffffffffffffffff168260405161081e90612678565b5f6040518083038185875af1925050503d805f8114610858576040519150601f19603f3d011682016040523d82523d5f602084013e61085d565b606091505b50509050806108a1576040517f08c379a0000000000000000000000000000000000000000000000000000000008152600401610898906126d6565b60405180910390fd5b3373ffffffffffffffffffffffffffffffffffffffff167f884edad9ce6fa2440d8a54cc123490eb96d2768479d49ff9c7366125a9424364836040516108e791906121c9565b60405180910390a25050565b5f5f9054906101000a900473ffffffffffffffffffffffffffffffffffffffff1673ffffffffffffffffffffffffffffffffffffffff163373ffffffffffffffffffffffffffffffffffffffff1614610981576040517f08c379a0000000000000000000000000000000000000000000000000000000008152600401610978906123b6565b60405180910390fd5b8060035410156109c6576040517f08c379a00000000000000000000000000000000000000000000000000000000081526004016109bd9061280e565b60405180910390fd5b8060035f8282546109d79190612618565b925050819055505f3373ffffffffffffffffffffffffffffffffffffffff1682604051610a0390612678565b5f6040518083038185875af1925050503d805f8114610a3d576040519150601f19603f3d011682016040523d82523d5f602084013e610a42565b606091505b5050905080610a86576040517f08c379a0000000000000000000000000000000000000000000000000000000008152600401610a7d906126d6565b60405180910390fd5b5050565b60015f3373ffffffffffffffffffffffffffffffffffffffff1673ffffffffffffffffffffffffffffffffffffffff1681526020019081526020015f205f015f9054906101000a900460ff1615610b16576040517f08c379a0000000000000000000000000000000000000000000000000000000008152600401610b0d90612876565b60405180910390fd5b6040518060c001604052806001151581526020018281526020015f81526020015f81526020015f81526020015f81525060015f3373ffffffffffffffffffffffffffffffffffffffff1673ffffffffffffffffffffffffffffffffffffffff1681526020019081526020015f205f820151815f015f6101000a81548160ff0219169083151502179055506020820151816001019081610bb59190612a91565b5060408201518160020155606082015181600301556080820151816004015560a082015181600501559050503373ffffffffffffffffffffffffffffffffffffffff167f48cac28ad4dc618e15f4c2dd5e97751182f166de97b25618318b2112aa951a2f82604051610c279190612b60565b60405180910390a250565b6002602052805f5260405f205f915090505481565b6001602052805f5260405f205f91509050805f015f9054906101000a900460ff1690806001018054610c78906128c1565b80601f0160208091040260200160405190810160405280929190818152602001828054610ca4906128c1565b8015610cef5780601f10610cc657610100808354040283529160200191610cef565b820191905f5260205f20905b815481529060010190602001808311610cd257829003601f168201915b5050505050908060020154908060030154908060040154908060050154905086565b60015f3373ffffffffffffffffffffffffffffffffffffffff1673ffffffffffffffffffffffffffffffffffffffff1681526020019081526020015f205f015f9054906101000a900460ff16610d9c576040517f08c379a0000000000000000000000000000000000000000000000000000000008152600401610d939061273e565b60405180910390fd5b60015f8373ffffffffffffffffffffffffffffffffffffffff1673ffffffffffffffffffffffffffffffffffffffff1681526020019081526020015f205f015f9054906101000a900460ff16610e27576040517f08c379a0000000000000000000000000000000000000000000000000000000008152600401610e1e90612bca565b60405180910390fd5b8060015f3373ffffffffffffffffffffffffffffffffffffffff1673ffffffffffffffffffffffffffffffffffffffff1681526020019081526020015f20600201541015610eaa576040517f08c379a0000000000000000000000000000000000000000000000000000000008152600401610ea1906127a6565b60405180910390fd5b8060015f3373ffffffffffffffffffffffffffffffffffffffff1673ffffffffffffffffffffffffffffffffffffffff1681526020019081526020015f206002015f828254610ef99190612618565b925050819055508060015f8473ffffffffffffffffffffffffffffffffffffffff1673ffffffffffffffffffffffffffffffffffffffff1681526020019081526020015f206002015f828254610f4f9190612be8565b925050819055508173ffffffffffffffffffffffffffffffffffffffff163373ffffffffffffffffffffffffffffffffffffffff167fddf252ad1be2c89b69c2b068fc378daa952ba7f163c4a11628f55a4df523b3ef83604051610fb391906121c9565b60405180910390a35050565b3460035f828254610fd09190612be8565b92505081905550565b60015f3373ffffffffffffffffffffffffffffffffffffffff1673ffffffffffffffffffffffffffffffffffffffff1681526020019081526020015f205f015f9054906101000a900460ff16611064576040517f08c379a000000000000000000000000000000000000000000000000000000000815260040161105b9061273e565b60405180910390fd5b5f34116110a6576040517f08c379a000000000000000000000000000000000000000000000000000000000815260040161109d90612c65565b60405180910390fd5b3460015f3373ffffffffffffffffffffffffffffffffffffffff1673ffffffffffffffffffffffffffffffffffffffff1681526020019081526020015f206002015f8282546110f59190612be8565b925050819055503373ffffffffffffffffffffffffffffffffffffffff167fe1fffcc4923d04b559f4d29a8bfc6cda04eb5b0d3c460751c2402c5c5cc9109c3460405161114291906121c9565b60405180910390a2565b60015f3373ffffffffffffffffffffffffffffffffffffffff1673ffffffffffffffffffffffffffffffffffffffff1681526020019081526020015f205f015f9054906101000a900460ff166111d7576040517f08c379a00000000000000000000000000000000000000000000000000000000081526004016111ce9061273e565b60405180910390fd5b5f60015f3373ffffffffffffffffffffffffffffffffffffffff1673ffffffffffffffffffffffffffffffffffffffff1681526020019081526020015f206003015414611259576040517f08c379a000000000000000000000000000000000000000000000000000000000815260040161125090612ccd565b60405180910390fd5b5f831161129b576040517f08c379a000000000000000000000000000000000000000000000000000000000815260040161129290612d35565b60405180910390fd5b5f60025f3373ffffffffffffffffffffffffffffffffffffffff1673ffffffffffffffffffffffffffffffffffffffff1681526020019081526020015f205490505f338585846040516020016112f49493929190612d53565b6040516020818303038152906040528051906020012090505f61131682611b16565b90505f61132c8583611b4990919063ffffffff16565b90505f5f9054906101000a900473ffffffffffffffffffffffffffffffffffffffff1673ffffffffffffffffffffffffffffffffffffffff168173ffffffffffffffffffffffffffffffffffffffff16146113bc576040517f08c379a00000000000000000000000000000000000000000000000000000000081526004016113b390612dea565b60405180910390fd5b60025f3373ffffffffffffffffffffffffffffffffffffffff1673ffffffffffffffffffffffffffffffffffffffff1681526020019081526020015f205f815480929190611409906125d1565b919050555086471015611451576040517f08c379a000000000000000000000000000000000000000000000000000000000815260040161144890612e52565b60405180910390fd5b8660015f3373ffffffffffffffffffffffffffffffffffffffff1673ffffffffffffffffffffffffffffffffffffffff1681526020019081526020015f20600301819055504260015f3373ffffffffffffffffffffffffffffffffffffffff1673ffffffffffffffffffffffffffffffffffffffff1681526020019081526020015f20600401819055508560015f3373ffffffffffffffffffffffffffffffffffffffff1673ffffffffffffffffffffffffffffffffffffffff1681526020019081526020015f20600501819055508660015f3373ffffffffffffffffffffffffffffffffffffffff1673ffffffffffffffffffffffffffffffffffffffff1681526020019081526020015f206002015f82825461156f9190612be8565b925050819055503373ffffffffffffffffffffffffffffffffffffffff167e6b9bb4766cf5ab74b890df959e4fad0e54b1c3885e49c9541d36253a6e39e688886040516115bd929190612e70565b60405180910390a250505050505050565b5f5f60015f8473ffffffffffffffffffffffffffffffffffffffff1673ffffffffffffffffffffffffffffffffffffffff1681526020019081526020015f206040518060c00160405290815f82015f9054906101000a900460ff16151515158152602001600182018054611641906128c1565b80601f016020809104026020016040519081016040528092919081815260200182805461166d906128c1565b80156116b85780601f1061168f576101008083540402835291602001916116b8565b820191905f5260205f20905b81548152906001019060200180831161169b57829003601f168201915b5050505050815260200160028201548152602001600382015481526020016004820154815260200160058201548152505090505f8160600151036116ff575f91505061174a565b5f8160800151426117109190612618565b90505f63bbf81e00828460a00151856060015161172d9190612e97565b6117379190612e97565b6117419190612f05565b90508093505050505b919050565b60035481565b60015f3373ffffffffffffffffffffffffffffffffffffffff1673ffffffffffffffffffffffffffffffffffffffff1681526020019081526020015f205f015f9054906101000a900460ff166117e0576040517f08c379a00000000000000000000000000000000000000000000000000000000081526004016117d79061273e565b60405180910390fd5b5f60015f3373ffffffffffffffffffffffffffffffffffffffff1673ffffffffffffffffffffffffffffffffffffffff1681526020019081526020015f206003015411611862576040517f08c379a000000000000000000000000000000000000000000000000000000000815260040161185990612f7f565b60405180910390fd5b5f61186c336115ce565b90505f8160015f3373ffffffffffffffffffffffffffffffffffffffff1673ffffffffffffffffffffffffffffffffffffffff1681526020019081526020015f20600301546118bb9190612be8565b90508060015f3373ffffffffffffffffffffffffffffffffffffffff1673ffffffffffffffffffffffffffffffffffffffff1681526020019081526020015f20600201541015611940576040517f08c379a00000000000000000000000000000000000000000000000000000000081526004016119379061300d565b60405180910390fd5b8060015f3373ffffffffffffffffffffffffffffffffffffffff1673ffffffffffffffffffffffffffffffffffffffff1681526020019081526020015f206002015f82825461198f9190612618565b925050819055505f60015f3373ffffffffffffffffffffffffffffffffffffffff1673ffffffffffffffffffffffffffffffffffffffff1681526020019081526020015f206003015490505f60015f3373ffffffffffffffffffffffffffffffffffffffff1673ffffffffffffffffffffffffffffffffffffffff1681526020019081526020015f20600301819055505f60015f3373ffffffffffffffffffffffffffffffffffffffff1673ffffffffffffffffffffffffffffffffffffffff1681526020019081526020015f20600401819055505f60015f3373ffffffffffffffffffffffffffffffffffffffff1673ffffffffffffffffffffffffffffffffffffffff1681526020019081526020015f20600501819055508260035f828254611aba9190612be8565b925050819055503373ffffffffffffffffffffffffffffffffffffffff167fc7ce0a35f17b490de2a317e7fecb2cae86b1abffb03800b2f4928235213826988285604051611b09929190612e70565b60405180910390a2505050565b5f7f19457468657265756d205369676e6564204d6573736167653a0a3332000000005f5281601c52603c5f209050919050565b5f5f5f5f611b578686611b73565b925092509250611b678282611bc8565b82935050505092915050565b5f5f5f6041845103611bb3575f5f5f602087015192506040870151915060608701515f1a9050611ba588828585611d2a565b955095509550505050611bc1565b5f600285515f1b9250925092505b9250925092565b5f6003811115611bdb57611bda61302b565b5b826003811115611bee57611bed61302b565b5b0315611d265760016003811115611c0857611c0761302b565b5b826003811115611c1b57611c1a61302b565b5b03611c52576040517ff645eedf00000000000000000000000000000000000000000000000000000000815260040160405180910390fd5b60026003811115611c6657611c6561302b565b5b826003811115611c7957611c7861302b565b5b03611cbd57805f1c6040517ffce698f7000000000000000000000000000000000000000000000000000000008152600401611cb491906121c9565b60405180910390fd5b600380811115611cd057611ccf61302b565b5b826003811115611ce357611ce261302b565b5b03611d2557806040517fd78bce0c000000000000000000000000000000000000000000000000000000008152600401611d1c9190613070565b60405180910390fd5b5b5050565b5f5f5f7f7fffffffffffffffffffffffffffffff5d576e7357a4501ddfe92f46681b20a0845f1c1115611d66575f600385925092509250611e07565b5f6001888888886040515f8152602001604052604051611d8994939291906130a4565b6020604051602081039080840390855afa158015611da9573d5f5f3e3d5ffd5b5050506020604051035190505f73ffffffffffffffffffffffffffffffffffffffff168173ffffffffffffffffffffffffffffffffffffffff1603611dfa575f60015f5f1b93509350935050611e07565b805f5f5f1b935093509350505b9450945094915050565b5f604051905090565b5f5ffd5b5f5ffd5b5f73ffffffffffffffffffffffffffffffffffffffff82169050919050565b5f611e4b82611e22565b9050919050565b611e5b81611e41565b8114611e65575f5ffd5b50565b5f81359050611e7681611e52565b92915050565b5f819050919050565b611e8e81611e7c565b8114611e98575f5ffd5b50565b5f81359050611ea981611e85565b92915050565b5f5ffd5b5f5ffd5b5f601f19601f8301169050919050565b7f4e487b71000000000000000000000000000000000000000000000000000000005f52604160045260245ffd5b611efd82611eb7565b810181811067ffffffffffffffff82111715611f1c57611f1b611ec7565b5b80604052505050565b5f611f2e611e11565b9050611f3a8282611ef4565b919050565b5f67ffffffffffffffff821115611f5957611f58611ec7565b5b611f6282611eb7565b9050602081019050919050565b828183375f83830152505050565b5f611f8f611f8a84611f3f565b611f25565b905082815260208101848484011115611fab57611faa611eb3565b5b611fb6848285611f6f565b509392505050565b5f82601f830112611fd257611fd1611eaf565b5b8135611fe2848260208601611f7d565b91505092915050565b5f5f5f6060848603121561200257612001611e1a565b5b5f61200f86828701611e68565b935050602061202086828701611e9b565b925050604084013567ffffffffffffffff81111561204157612040611e1e565b5b61204d86828701611fbe565b9150509250925092565b61206081611e41565b82525050565b5f6020820190506120795f830184612057565b92915050565b5f6020828403121561209457612093611e1a565b5b5f6120a184828501611e9b565b91505092915050565b5f67ffffffffffffffff8211156120c4576120c3611ec7565b5b6120cd82611eb7565b9050602081019050919050565b5f6120ec6120e7846120aa565b611f25565b90508281526020810184848401111561210857612107611eb3565b5b612113848285611f6f565b509392505050565b5f82601f83011261212f5761212e611eaf565b5b813561213f8482602086016120da565b91505092915050565b5f6020828403121561215d5761215c611e1a565b5b5f82013567ffffffffffffffff81111561217a57612179611e1e565b5b6121868482850161211b565b91505092915050565b5f602082840312156121a4576121a3611e1a565b5b5f6121b184828501611e68565b91505092915050565b6121c381611e7c565b82525050565b5f6020820190506121dc5f8301846121ba565b92915050565b5f8115159050919050565b6121f6816121e2565b82525050565b5f81519050919050565b5f82825260208201905092915050565b8281835e5f83830152505050565b5f61222e826121fc565b6122388185612206565b9350612248818560208601612216565b61225181611eb7565b840191505092915050565b5f60c08201905061226f5f8301896121ed565b81810360208301526122818188612224565b905061229060408301876121ba565b61229d60608301866121ba565b6122aa60808301856121ba565b6122b760a08301846121ba565b979650505050505050565b5f5f604083850312156122d8576122d7611e1a565b5b5f6122e585828601611e68565b92505060206122f685828601611e9b565b9150509250929050565b5f5f5f6060848603121561231757612316611e1a565b5b5f61232486828701611e9b565b935050602061233586828701611e9b565b925050604084013567ffffffffffffffff81111561235657612355611e1e565b5b61236286828701611fbe565b9150509250925092565b7f4e6f742062616e6b2061646d696e0000000000000000000000000000000000005f82015250565b5f6123a0600e83612206565b91506123ab8261236c565b602082019050919050565b5f6020820190508181035f8301526123cd81612394565b9050919050565b7f496e73756666696369656e7420757365722062616c616e6365000000000000005f82015250565b5f612408601983612206565b9150612413826123d4565b602082019050919050565b5f6020820190508181035f830152612435816123fc565b9050919050565b5f81905092915050565b7f57495448445241570000000000000000000000000000000000000000000000005f82015250565b5f61247a60088361243c565b915061248582612446565b600882019050919050565b5f8160601b9050919050565b5f6124a682612490565b9050919050565b5f6124b78261249c565b9050919050565b6124cf6124ca82611e41565b6124ad565b82525050565b5f819050919050565b6124ef6124ea82611e7c565b6124d5565b82525050565b5f6124ff8261246e565b915061250b82866124be565b60148201915061251b82856124de565b60208201915061252b82846124de565b602082019150819050949350505050565b7f496e76616c69642075736572207369676e6174757265000000000000000000005f82015250565b5f612570601683612206565b915061257b8261253c565b602082019050919050565b5f6020820190508181035f83015261259d81612564565b9050919050565b7f4e487b71000000000000000000000000000000000000000000000000000000005f52601160045260245ffd5b5f6125db82611e7c565b91507fffffffffffffffffffffffffffffffffffffffffffffffffffffffffffffffff820361260d5761260c6125a4565b5b600182019050919050565b5f61262282611e7c565b915061262d83611e7c565b9250828203905081811115612645576126446125a4565b5b92915050565b5f81905092915050565b50565b5f6126635f8361264b565b915061266e82612655565b5f82019050919050565b5f61268282612658565b9150819050919050565b7f5472616e73666572206661696c656400000000000000000000000000000000005f82015250565b5f6126c0600f83612206565b91506126cb8261268c565b602082019050919050565b5f6020820190508181035f8301526126ed816126b4565b9050919050565b7f55736572206e6f742072656769737465726564000000000000000000000000005f82015250565b5f612728601383612206565b9150612733826126f4565b602082019050919050565b5f6020820190508181035f8301526127558161271c565b9050919050565b7f496e73756666696369656e742062616c616e63650000000000000000000000005f82015250565b5f612790601483612206565b915061279b8261275c565b602082019050919050565b5f6020820190508181035f8301526127bd81612784565b9050919050565b7f496e73756666696369656e7420726573657276650000000000000000000000005f82015250565b5f6127f8601483612206565b9150612803826127c4565b602082019050919050565b5f6020820190508181035f830152612825816127ec565b9050919050565b7f416c7265616479207265676973746572656400000000000000000000000000005f82015250565b5f612860601283612206565b915061286b8261282c565b602082019050919050565b5f6020820190508181035f83015261288d81612854565b9050919050565b7f4e487b71000000000000000000000000000000000000000000000000000000005f52602260045260245ffd5b5f60028204905060018216806128d857607f821691505b6020821081036128eb576128ea612894565b5b50919050565b5f819050815f5260205f209050919050565b5f6020601f8301049050919050565b5f82821b905092915050565b5f6008830261294d7fffffffffffffffffffffffffffffffffffffffffffffffffffffffffffffffff82612912565b6129578683612912565b95508019841693508086168417925050509392505050565b5f819050919050565b5f61299261298d61298884611e7c565b61296f565b611e7c565b9050919050565b5f819050919050565b6129ab83612978565b6129bf6129b782612999565b84845461291e565b825550505050565b5f5f905090565b6129d66129c7565b6129e18184846129a2565b505050565b5b81811015612a04576129f95f826129ce565b6001810190506129e7565b5050565b601f821115612a4957612a1a816128f1565b612a2384612903565b81016020851015612a32578190505b612a46612a3e85612903565b8301826129e6565b50505b505050565b5f82821c905092915050565b5f612a695f1984600802612a4e565b1980831691505092915050565b5f612a818383612a5a565b9150826002028217905092915050565b612a9a826121fc565b67ffffffffffffffff811115612ab357612ab2611ec7565b5b612abd82546128c1565b612ac8828285612a08565b5f60209050601f831160018114612af9575f8415612ae7578287015190505b612af18582612a76565b865550612b58565b601f198416612b07866128f1565b5f5b82811015612b2e57848901518255600182019150602085019450602081019050612b09565b86831015612b4b5784890151612b47601f891682612a5a565b8355505b6001600288020188555050505b505050505050565b5f6020820190508181035f830152612b788184612224565b905092915050565b7f526563697069656e74206e6f74207265676973746572656400000000000000005f82015250565b5f612bb4601883612206565b9150612bbf82612b80565b602082019050919050565b5f6020820190508181035f830152612be181612ba8565b9050919050565b5f612bf282611e7c565b9150612bfd83611e7c565b9250828201905080821115612c1557612c146125a4565b5b92915050565b7f4465706f73697420616d6f756e74206d757374206265203e20300000000000005f82015250565b5f612c4f601a83612206565b9150612c5a82612c1b565b602082019050919050565b5f6020820190508181035f830152612c7c81612c43565b9050919050565b7f416c7265616479206861766520616e20616374697665206c6f616e00000000005f82015250565b5f612cb7601b83612206565b9150612cc282612c83565b602082019050919050565b5f6020820190508181035f830152612ce481612cab565b9050919050565b7f4c6f616e20616d6f756e74206d757374206265203e20300000000000000000005f82015250565b5f612d1f601783612206565b9150612d2a82612ceb565b602082019050919050565b5f6020820190508181035f830152612d4c81612d13565b9050919050565b5f612d5e82876124be565b601482019150612d6e82866124de565b602082019150612d7e82856124de565b602082019150612d8e82846124de565b60208201915081905095945050505050565b7f496e76616c69642062616e6b207369676e6174757265000000000000000000005f82015250565b5f612dd4601683612206565b9150612ddf82612da0565b602082019050919050565b5f6020820190508181035f830152612e0181612dc8565b9050919050565b7f42616e6b2068617320696e73756666696369656e74206c6971756964697479005f82015250565b5f612e3c601f83612206565b9150612e4782612e08565b602082019050919050565b5f6020820190508181035f830152612e6981612e30565b9050919050565b5f604082019050612e835f8301856121ba565b612e9060208301846121ba565b9392505050565b5f612ea182611e7c565b9150612eac83611e7c565b9250828202612eba81611e7c565b91508282048414831517612ed157612ed06125a4565b5b5092915050565b7f4e487b71000000000000000000000000000000000000000000000000000000005f52601260045260245ffd5b5f612f0f82611e7c565b9150612f1a83611e7c565b925082612f2a57612f29612ed8565b5b828204905092915050565b7f4e6f20616374697665206c6f616e0000000000000000000000000000000000005f82015250565b5f612f69600e83612206565b9150612f7482612f35565b602082019050919050565b5f6020820190508181035f830152612f9681612f5d565b9050919050565b7f496e73756666696369656e742062616e6b2062616c616e636520746f207265705f8201527f6179206c6f616e00000000000000000000000000000000000000000000000000602082015250565b5f612ff7602783612206565b915061300282612f9d565b604082019050919050565b5f6020820190508181035f83015261302481612feb565b9050919050565b7f4e487b71000000000000000000000000000000000000000000000000000000005f52602160045260245ffd5b5f819050919050565b61306a81613058565b82525050565b5f6020820190506130835f830184613061565b92915050565b5f60ff82169050919050565b61309e81613089565b82525050565b5f6080820190506130b75f830187613061565b6130c46020830186613095565b6130d16040830185613061565b6130de6060830184613061565b9594505050505056fea2646970667358221220e12470d1cdc9cd52e02333b044547bd7c2f1555880676295e715bec72497ba6464736f6c634300081c0033",
  "linkReferences": {},
  "deployedLinkReferences": {}
}