{
  "_format": "hh-sol-artifact-1",
  "contractName": "DecentralizedBank",
  "sourceName": "contracts/DecentralizedBank.sol",
  "abi": [
    {
      "inputs": [],
      "stateMutability": "nonpayable",
      "type": "constructor"
    },
    {
      "inputs": [],
      "name": "ECDSAInvalidSignature",
      "type": "error"
    },
    {
      "inputs": [
        {
          "internalType": "uint256",
          "name": "length",
          "type": "uint256"
        }
      ],
      "name": "ECDSAInvalidSignatureLength",
      "type": "error"
    },
    {
      "inputs": [
        {
          "internalType": "bytes32",
          "name": "s",
          "type": "bytes32"
        }
      ],
      "name": "ECDSAInvalidSignatureS",
      "type": "error"
    },
    {
      "anonymous": false,
      "inputs": [
        {
          "indexed": true,
          "internalType": "address",
          "name": "user",
          "type": "address"
        },
        {
          "indexed": false,
          "internalType": "uint256",
          "name": "amount",
          "type": "uint256"
        }
      ],
      "name": "Deposit",
      "type": "event"
    },
    {
      "anonymous": false,
      "inputs": [
        {
          "indexed": true,
          "internalType": "address",
          "name": "user",
          "type": "address"
        },
        {
          "indexed": false,
          "internalType": "uint256",
          "name": "principalPaid",
          "type": "uint256"
        },
        {
          "indexed": false,
          "internalType": "uint256",
          "name": "interestPaid",
          "type": "uint256"
        },
        {
          "indexed": false,
          "internalType": "uint256",
          "name": "remainingPrincipal",
          "type": "uint256"
        }
      ],
      "name": "LoanRepaid",
      "type": "event"
    },
    {
      "anonymous": false,
      "inputs": [
        {
          "indexed": true,
          "internalType": "address",
          "name": "user",
          "type": "address"
        },
        {
          "indexed": false,
          "internalType": "uint256",
          "name": "amount",
          "type": "uint256"
        },
        {
          "indexed": false,
          "internalType": "uint256",
          "name": "interestRate",
          "type": "uint256"
        }
      ],
      "name": "LoanTaken",
      "type": "event"
    },
    {
      "anonymous": false,
      "inputs": [
        {
          "indexed": true,
          "internalType": "address",
          "name": "from",
          "type": "address"
        },
        {
          "indexed": true,
          "internalType": "address",
          "name": "to",
          "type": "address"
        },
        {
          "indexed": false,
          "internalType": "uint256",
          "name": "amount",
          "type": "uint256"
        }
      ],
      "name": "Transfer",
      "type": "event"
    },
    {
      "anonymous": false,
      "inputs": [
        {
          "indexed": true,
          "internalType": "address",
          "name": "user",
          "type": "address"
        },
        {
          "indexed": false,
          "internalType": "string",
          "name": "name",
          "type": "string"
        }
      ],
      "name": "UserRegistered",
      "type": "event"
    },
    {
      "anonymous": false,
      "inputs": [
        {
          "indexed": true,
          "internalType": "address",
          "name": "user",
          "type": "address"
        },
        {
          "indexed": false,
          "internalType": "uint256",
          "name": "amount",
          "type": "uint256"
        }
      ],
      "name": "Withdraw",
      "type": "event"
    },
    {
      "inputs": [
        {
          "internalType": "address",
          "name": "_user",
          "type": "address"
        },
        {
          "internalType": "uint256",
          "name": "_amount",
          "type": "uint256"
        },
        {
          "internalType": "bytes",
          "name": "_signature",
          "type": "bytes"
        }
      ],
      "name": "adminWithdrawUserFunds",
      "outputs": [],
      "stateMutability": "nonpayable",
      "type": "function"
    },
    {
      "inputs": [],
      "name": "bankAdmin",
      "outputs": [
        {
          "internalType": "address",
          "name": "",
          "type": "address"
        }
      ],
      "stateMutability": "view",
      "type": "function"
    },
    {
      "inputs": [
        {
          "internalType": "address",
          "name": "_user",
          "type": "address"
        }
      ],
      "name": "calculateInterest",
      "outputs": [
        {
          "internalType": "uint256",
          "name": "",
          "type": "uint256"
        }
      ],
      "stateMutability": "view",
      "type": "function"
    },
    {
      "inputs": [],
      "name": "deposit",
      "outputs": [],
      "stateMutability": "payable",
      "type": "function"
    },
    {
      "inputs": [],
      "name": "fundBank",
      "outputs": [],
      "stateMutability": "payable",
      "type": "function"
    },
    {
      "inputs": [
        {
          "internalType": "address",
          "name": "",
          "type": "address"
        }
      ],
      "name": "nonces",
      "outputs": [
        {
          "internalType": "uint256",
          "name": "",
          "type": "uint256"
        }
      ],
      "stateMutability": "view",
      "type": "function"
    },
    {
      "inputs": [
        {
          "internalType": "string",
          "name": "_name",
          "type": "string"
        }
      ],
      "name": "registerUser",
      "outputs": [],
      "stateMutability": "nonpayable",
      "type": "function"
    },
    {
      "inputs": [],
      "name": "repayLoan",
      "outputs": [],
      "stateMutability": "payable",
      "type": "function"
    },
    {
      "inputs": [
        {
          "internalType": "uint256",
          "name": "_amount",
          "type": "uint256"
        },
        {
          "internalType": "uint256",
          "name": "_interestRate",
          "type": "uint256"
        },
        {
          "internalType": "bytes",
          "name": "_signature",
          "type": "bytes"
        }
      ],
      "name": "takeLoan",
      "outputs": [],
      "stateMutability": "nonpayable",
      "type": "function"
    },
    {
      "inputs": [],
      "name": "totalBankReserve",
      "outputs": [
        {
          "internalType": "uint256",
          "name": "",
          "type": "uint256"
        }
      ],
      "stateMutability": "view",
      "type": "function"
    },
    {
      "inputs": [
        {
          "internalType": "address",
          "name": "_to",
          "type": "address"
        },
        {
          "internalType": "uint256",
          "name": "_amount",
          "type": "uint256"
        }
      ],
      "name": "transfer",
      "outputs": [],
      "stateMutability": "nonpayable",
      "type": "function"
    },
    {
      "inputs": [
        {
          "internalType": "address",
          "name": "",
          "type": "address"
        }
      ],
      "name": "users",
      "outputs": [
        {
          "internalType": "bool",
          "name": "isRegistered",
          "type": "bool"
        },
        {
          "internalType": "string",
          "name": "name",
          "type": "string"
        },
        {
          "internalType": "uint256",
          "name": "balance",
          "type": "uint256"
        },
        {
          "internalType": "uint256",
          "name": "loanAmount",
          "type": "uint256"
        },
        {
          "internalType": "uint256",
          "name": "loanTimestamp",
          "type": "uint256"
        },
        {
          "internalType": "uint256",
          "name": "interestRate",
          "type": "uint256"
        }
      ],
      "stateMutability": "view",
      "type": "function"
    },
    {
      "inputs": [
        {
          "internalType": "uint256",
          "name": "_amount",
          "type": "uint256"
        }
      ],
      "name": "withdraw",
      "outputs": [],
      "stateMutability": "nonpayable",
      "type": "function"
    },
    {
      "inputs": [
        {
          "internalType": "uint256",
          "name": "_amount",
          "type": "uint256"
        }
      ],
      "name": "withdrawReserve",
      "outputs": [],
      "stateMutability": "nonpayable",
      "type": "function"
    }
  ],
  "bytecode": "0x6080604052348015600e575f5ffd5b50335f5f6101000a81548173ffffffffffffffffffffffffffffffffffffffff021916908373ffffffffffffffffffffffffffffffffffffffff1602179055506132008061005b5f395ff3fe6080604052600436106100dc575f3560e01c8063a9059cbb1161007e578063d12fb6ce11610058578063d12fb6ce14610263578063e11932cf1461028b578063f7e9b642146102c7578063f966ade7146102f1576100dc565b8063a9059cbb14610227578063aa07b2ff1461024f578063d0e30db014610259576100dc565b80633e696f38116100ba5780633e696f381461015a578063704f1b94146101825780637ecebe00146101aa578063a87430ba146101e6576100dc565b806302b71d7f146100e05780631aa9a27f146101085780632e1a7d4d14610132575b5f5ffd5b3480156100eb575f5ffd5b50610106600480360381019061010191906120bf565b6102fb565b005b348015610113575f5ffd5b5061011c61067d565b604051610129919061213a565b60405180910390f35b34801561013d575f5ffd5b5061015860048036038101906101539190612153565b6106a1565b005b348015610165575f5ffd5b50610180600480360381019061017b9190612153565b610917565b005b34801561018d575f5ffd5b506101a860048036038101906101a3919061221c565b610aae565b005b3480156101b5575f5ffd5b506101d060048036038101906101cb9190612263565b610c56565b6040516101dd919061229d565b60405180910390f35b3480156101f1575f5ffd5b5061020c60048036038101906102079190612263565b610c6b565b60405161021e96959493929190612330565b60405180910390f35b348015610232575f5ffd5b5061024d60048036038101906102489190612396565b610d35565b005b610257610fe3565b005b610261610ffd565b005b34801561026e575f5ffd5b50610289600480360381019061028491906123d4565b611188565b005b348015610296575f5ffd5b506102b160048036038101906102ac9190612263565b61160a565b6040516102be919061229d565b60405180910390f35b3480156102d2575f5ffd5b506102db61178b565b6040516102e8919061229d565b60405180910390f35b6102f9611791565b005b5f5f9054906101000a900473ffffffffffffffffffffffffffffffffffffffff1673ffffffffffffffffffffffffffffffffffffffff163373ffffffffffffffffffffffffffffffffffffffff1614610389576040517f08c379a00000000000000000000000000000000000000000000000000000000081526004016103809061248a565b60405180910390fd5b8160015f8573ffffffffffffffffffffffffffffffffffffffff1673ffffffffffffffffffffffffffffffffffffffff1681526020019081526020015f2060020154101561040c576040517f08c379a0000000000000000000000000000000000000000000000000000000008152600401610403906124f2565b60405180910390fd5b5f60025f8573ffffffffffffffffffffffffffffffffffffffff1673ffffffffffffffffffffffffffffffffffffffff1681526020019081526020015f205490505f848483604051602001610463939291906125c9565b6040516020818303038152906040528051906020012090505f61048582611bea565b90505f61049b8583611c1d90919063ffffffff16565b90508673ffffffffffffffffffffffffffffffffffffffff168173ffffffffffffffffffffffffffffffffffffffff161461050b576040517f08c379a00000000000000000000000000000000000000000000000000000000081526004016105029061265a565b60405180910390fd5b60025f8873ffffffffffffffffffffffffffffffffffffffff1673ffffffffffffffffffffffffffffffffffffffff1681526020019081526020015f205f815480929190610558906126a5565b91905055508560015f8973ffffffffffffffffffffffffffffffffffffffff1673ffffffffffffffffffffffffffffffffffffffff1681526020019081526020015f206002015f8282546105ac91906126ec565b925050819055508560035f8282546105c491906126ec565b925050819055505f3373ffffffffffffffffffffffffffffffffffffffff16876040516105f09061274c565b5f6040518083038185875af1925050503d805f811461062a576040519150601f19603f3d011682016040523d82523d5f602084013e61062f565b606091505b5050905080610673576040517f08c379a000000000000000000000000000000000000000000000000000000000815260040161066a906127aa565b60405180910390fd5b5050505050505050565b5f5f9054906101000a900473ffffffffffffffffffffffffffffffffffffffff1681565b60015f3373ffffffffffffffffffffffffffffffffffffffff1673ffffffffffffffffffffffffffffffffffffffff1681526020019081526020015f205f015f9054906101000a900460ff1661072c576040517f08c379a000000000000000000000000000000000000000000000000000000000815260040161072390612812565b60405180910390fd5b8060015f3373ffffffffffffffffffffffffffffffffffffffff1673ffffffffffffffffffffffffffffffffffffffff1681526020019081526020015f206002015410156107af576040517f08c379a00000000000000000000000000000000000000000000000000000000081526004016107a69061287a565b60405180910390fd5b8060015f3373ffffffffffffffffffffffffffffffffffffffff1673ffffffffffffffffffffffffffffffffffffffff1681526020019081526020015f206002015f8282546107fe91906126ec565b925050819055508060035f82825461081691906126ec565b925050819055505f3373ffffffffffffffffffffffffffffffffffffffff16826040516108429061274c565b5f6040518083038185875af1925050503d805f811461087c576040519150601f19603f3d011682016040523d82523d5f602084013e610881565b606091505b50509050806108c5576040517f08c379a00000000000000000000000000000000000000000000000000000000081526004016108bc906127aa565b60405180910390fd5b3373ffffffffffffffffffffffffffffffffffffffff167f884edad9ce6fa2440d8a54cc123490eb96d2768479d49ff9c7366125a94243648360405161090b919061229d565b60405180910390a25050565b5f5f9054906101000a900473ffffffffffffffffffffffffffffffffffffffff1673ffffffffffffffffffffffffffffffffffffffff163373ffffffffffffffffffffffffffffffffffffffff16146109a5576040517f08c379a000000000000000000000000000000000000000000000000000000000815260040161099c9061248a565b60405180910390fd5b8060035410156109ea576040517f08c379a00000000000000000000000000000000000000000000000000000000081526004016109e1906128e2565b60405180910390fd5b8060035f8282546109fb91906126ec565b925050819055505f3373ffffffffffffffffffffffffffffffffffffffff1682604051610a279061274c565b5f6040518083038185875af1925050503d805f8114610a61576040519150601f19603f3d011682016040523d82523d5f602084013e610a66565b606091505b5050905080610aaa576040517f08c379a0000000000000000000000000000000000000000000000000000000008152600401610aa1906127aa565b60405180910390fd5b5050565b60015f3373ffffffffffffffffffffffffffffffffffffffff1673ffffffffffffffffffffffffffffffffffffffff1681526020019081526020015f205f015f9054906101000a900460ff1615610b3a576040517f08c379a0000000000000000000000000000000000000000000000000000000008152600401610b319061294a565b60405180910390fd5b6040518060c001604052806001151581526020018281526020015f81526020015f81526020015f81526020015f81525060015f3373ffffffffffffffffffffffffffffffffffffffff1673ffffffffffffffffffffffffffffffffffffffff1681526020019081526020015f205f820151815f015f6101000a81548160ff0219169083151502179055506020820151816001019081610bd99190612b65565b5060408201518160020155606082015181600301556080820151816004015560a082015181600501559050503373ffffffffffffffffffffffffffffffffffffffff167f48cac28ad4dc618e15f4c2dd5e97751182f166de97b25618318b2112aa951a2f82604051610c4b9190612c34565b60405180910390a250565b6002602052805f5260405f205f915090505481565b6001602052805f5260405f205f91509050805f015f9054906101000a900460ff1690806001018054610c9c90612995565b80601f0160208091040260200160405190810160405280929190818152602001828054610cc890612995565b8015610d135780601f10610cea57610100808354040283529160200191610d13565b820191905f5260205f20905b815481529060010190602001808311610cf657829003601f168201915b5050505050908060020154908060030154908060040154908060050154905086565b60015f3373ffffffffffffffffffffffffffffffffffffffff1673ffffffffffffffffffffffffffffffffffffffff1681526020019081526020015f205f015f9054906101000a900460ff16610dc0576040517f08c379a0000000000000000000000000000000000000000000000000000000008152600401610db790612812565b60405180910390fd5b60015f8373ffffffffffffffffffffffffffffffffffffffff1673ffffffffffffffffffffffffffffffffffffffff1681526020019081526020015f205f015f9054906101000a900460ff16610e4b576040517f08c379a0000000000000000000000000000000000000000000000000000000008152600401610e4290612c9e565b60405180910390fd5b8060015f3373ffffffffffffffffffffffffffffffffffffffff1673ffffffffffffffffffffffffffffffffffffffff1681526020019081526020015f20600201541015610ece576040517f08c379a0000000000000000000000000000000000000000000000000000000008152600401610ec59061287a565b60405180910390fd5b8060015f3373ffffffffffffffffffffffffffffffffffffffff1673ffffffffffffffffffffffffffffffffffffffff1681526020019081526020015f206002015f828254610f1d91906126ec565b925050819055508060015f8473ffffffffffffffffffffffffffffffffffffffff1673ffffffffffffffffffffffffffffffffffffffff1681526020019081526020015f206002015f828254610f739190612cbc565b925050819055508173ffffffffffffffffffffffffffffffffffffffff163373ffffffffffffffffffffffffffffffffffffffff167fddf252ad1be2c89b69c2b068fc378daa952ba7f163c4a11628f55a4df523b3ef83604051610fd7919061229d565b60405180910390a35050565b3460035f828254610ff49190612cbc565b92505081905550565b60015f3373ffffffffffffffffffffffffffffffffffffffff1673ffffffffffffffffffffffffffffffffffffffff1681526020019081526020015f205f015f9054906101000a900460ff16611088576040517f08c379a000000000000000000000000000000000000000000000000000000000815260040161107f90612812565b60405180910390fd5b5f34116110ca576040517f08c379a00000000000000000000000000000000000000000000000000000000081526004016110c190612d39565b60405180910390fd5b3460015f3373ffffffffffffffffffffffffffffffffffffffff1673ffffffffffffffffffffffffffffffffffffffff1681526020019081526020015f206002015f8282546111199190612cbc565b925050819055503460035f8282546111319190612cbc565b925050819055503373ffffffffffffffffffffffffffffffffffffffff167fe1fffcc4923d04b559f4d29a8bfc6cda04eb5b0d3c460751c2402c5c5cc9109c3460405161117e919061229d565b60405180910390a2565b60015f3373ffffffffffffffffffffffffffffffffffffffff1673ffffffffffffffffffffffffffffffffffffffff1681526020019081526020015f205f015f9054906101000a900460ff16611213576040517f08c379a000000000000000000000000000000000000000000000000000000000815260040161120a90612812565b60405180910390fd5b5f60015f3373ffffffffffffffffffffffffffffffffffffffff1673ffffffffffffffffffffffffffffffffffffffff1681526020019081526020015f206003015414611295576040517f08c379a000000000000000000000000000000000000000000000000000000000815260040161128c90612da1565b60405180910390fd5b5f83116112d7576040517f08c379a00000000000000000000000000000000000000000000000000000000081526004016112ce90612e09565b60405180910390fd5b5f60025f3373ffffffffffffffffffffffffffffffffffffffff1673ffffffffffffffffffffffffffffffffffffffff1681526020019081526020015f205490505f338585846040516020016113309493929190612e27565b6040516020818303038152906040528051906020012090505f61135282611bea565b90505f6113688583611c1d90919063ffffffff16565b90505f5f9054906101000a900473ffffffffffffffffffffffffffffffffffffffff1673ffffffffffffffffffffffffffffffffffffffff168173ffffffffffffffffffffffffffffffffffffffff16146113f8576040517f08c379a00000000000000000000000000000000000000000000000000000000081526004016113ef90612ebe565b60405180910390fd5b60025f3373ffffffffffffffffffffffffffffffffffffffff1673ffffffffffffffffffffffffffffffffffffffff1681526020019081526020015f205f815480929190611445906126a5565b91905055508647101561148d576040517f08c379a000000000000000000000000000000000000000000000000000000000815260040161148490612f26565b60405180910390fd5b8660015f3373ffffffffffffffffffffffffffffffffffffffff1673ffffffffffffffffffffffffffffffffffffffff1681526020019081526020015f20600301819055504260015f3373ffffffffffffffffffffffffffffffffffffffff1673ffffffffffffffffffffffffffffffffffffffff1681526020019081526020015f20600401819055508560015f3373ffffffffffffffffffffffffffffffffffffffff1673ffffffffffffffffffffffffffffffffffffffff1681526020019081526020015f20600501819055508660015f3373ffffffffffffffffffffffffffffffffffffffff1673ffffffffffffffffffffffffffffffffffffffff1681526020019081526020015f206002015f8282546115ab9190612cbc565b925050819055503373ffffffffffffffffffffffffffffffffffffffff167e6b9bb4766cf5ab74b890df959e4fad0e54b1c3885e49c9541d36253a6e39e688886040516115f9929190612f44565b60405180910390a250505050505050565b5f5f60015f8473ffffffffffffffffffffffffffffffffffffffff1673ffffffffffffffffffffffffffffffffffffffff1681526020019081526020015f206040518060c00160405290815f82015f9054906101000a900460ff1615151515815260200160018201805461167d90612995565b80601f01602080910402602001604051908101604052809291908181526020018280546116a990612995565b80156116f45780601f106116cb576101008083540402835291602001916116f4565b820191905f5260205f20905b8154815290600101906020018083116116d757829003601f168201915b5050505050815260200160028201548152602001600382015481526020016004820154815260200160058201548152505090505f81606001510361173b575f915050611786565b5f81608001514261174c91906126ec565b90505f63bbf81e00828460a0015185606001516117699190612f6b565b6117739190612f6b565b61177d9190612fd9565b90508093505050505b919050565b60035481565b60015f3373ffffffffffffffffffffffffffffffffffffffff1673ffffffffffffffffffffffffffffffffffffffff1681526020019081526020015f205f015f9054906101000a900460ff1661181c576040517f08c379a000000000000000000000000000000000000000000000000000000000815260040161181390612812565b60405180910390fd5b5f60015f3373ffffffffffffffffffffffffffffffffffffffff1673ffffffffffffffffffffffffffffffffffffffff1681526020019081526020015f20600301541161189e576040517f08c379a000000000000000000000000000000000000000000000000000000000815260040161189590613053565b60405180910390fd5b5f34116118e0576040517f08c379a00000000000000000000000000000000000000000000000000000000081526004016118d7906130bb565b60405180910390fd5b5f6118ea3361160a565b90505f8160015f3373ffffffffffffffffffffffffffffffffffffffff1673ffffffffffffffffffffffffffffffffffffffff1681526020019081526020015f20600301546119399190612cbc565b90505f349050813411156119ac57819050813461195691906126ec565b60015f3373ffffffffffffffffffffffffffffffffffffffff1673ffffffffffffffffffffffffffffffffffffffff1681526020019081526020015f206002015f8282546119a49190612cbc565b925050819055505b8060035f8282546119bd9190612cbc565b925050819055505f5f8483106119e35784915084836119dc91906126ec565b90506119ea565b8291505f90505b82846119f691906126ec565b60015f3373ffffffffffffffffffffffffffffffffffffffff1673ffffffffffffffffffffffffffffffffffffffff1681526020019081526020015f20600301819055504260015f3373ffffffffffffffffffffffffffffffffffffffff1673ffffffffffffffffffffffffffffffffffffffff1681526020019081526020015f20600401819055505f60015f3373ffffffffffffffffffffffffffffffffffffffff1673ffffffffffffffffffffffffffffffffffffffff1681526020019081526020015f206003015403611b51575f60015f3373ffffffffffffffffffffffffffffffffffffffff1673ffffffffffffffffffffffffffffffffffffffff1681526020019081526020015f20600501819055505f60015f3373ffffffffffffffffffffffffffffffffffffffff1673ffffffffffffffffffffffffffffffffffffffff1681526020019081526020015f20600401819055505b3373ffffffffffffffffffffffffffffffffffffffff167f2cebe3c4a7e8e81ca2035a6cb3ee450bb6401d9b6636652e183583f047049572828460015f3373ffffffffffffffffffffffffffffffffffffffff1673ffffffffffffffffffffffffffffffffffffffff1681526020019081526020015f2060030154604051611bdb939291906130d9565b60405180910390a25050505050565b5f7f19457468657265756d205369676e6564204d6573736167653a0a3332000000005f5281601c52603c5f209050919050565b5f5f5f5f611c2b8686611c47565b925092509250611c3b8282611c9c565b82935050505092915050565b5f5f5f6041845103611c87575f5f5f602087015192506040870151915060608701515f1a9050611c7988828585611dfe565b955095509550505050611c95565b5f600285515f1b9250925092505b9250925092565b5f6003811115611caf57611cae61310e565b5b826003811115611cc257611cc161310e565b5b0315611dfa5760016003811115611cdc57611cdb61310e565b5b826003811115611cef57611cee61310e565b5b03611d26576040517ff645eedf00000000000000000000000000000000000000000000000000000000815260040160405180910390fd5b60026003811115611d3a57611d3961310e565b5b826003811115611d4d57611d4c61310e565b5b03611d9157805f1c6040517ffce698f7000000000000000000000000000000000000000000000000000000008152600401611d88919061229d565b60405180910390fd5b600380811115611da457611da361310e565b5b826003811115611db757611db661310e565b5b03611df957806040517fd78bce0c000000000000000000000000000000000000000000000000000000008152600401611df09190613153565b60405180910390fd5b5b5050565b5f5f5f7f7fffffffffffffffffffffffffffffff5d576e7357a4501ddfe92f46681b20a0845f1c1115611e3a575f600385925092509250611edb565b5f6001888888886040515f8152602001604052604051611e5d9493929190613187565b6020604051602081039080840390855afa158015611e7d573d5f5f3e3d5ffd5b5050506020604051035190505f73ffffffffffffffffffffffffffffffffffffffff168173ffffffffffffffffffffffffffffffffffffffff1603611ece575f60015f5f1b93509350935050611edb565b805f5f5f1b935093509350505b9450945094915050565b5f604051905090565b5f5ffd5b5f5ffd5b5f73ffffffffffffffffffffffffffffffffffffffff82169050919050565b5f611f1f82611ef6565b9050919050565b611f2f81611f15565b8114611f39575f5ffd5b50565b5f81359050611f4a81611f26565b92915050565b5f819050919050565b611f6281611f50565b8114611f6c575f5ffd5b50565b5f81359050611f7d81611f59565b92915050565b5f5ffd5b5f5ffd5b5f601f19601f8301169050919050565b7f4e487b71000000000000000000000000000000000000000000000000000000005f52604160045260245ffd5b611fd182611f8b565b810181811067ffffffffffffffff82111715611ff057611fef611f9b565b5b80604052505050565b5f612002611ee5565b905061200e8282611fc8565b919050565b5f67ffffffffffffffff82111561202d5761202c611f9b565b5b61203682611f8b565b9050602081019050919050565b828183375f83830152505050565b5f61206361205e84612013565b611ff9565b90508281526020810184848401111561207f5761207e611f87565b5b61208a848285612043565b509392505050565b5f82601f8301126120a6576120a5611f83565b5b81356120b6848260208601612051565b91505092915050565b5f5f5f606084860312156120d6576120d5611eee565b5b5f6120e386828701611f3c565b93505060206120f486828701611f6f565b925050604084013567ffffffffffffffff81111561211557612114611ef2565b5b61212186828701612092565b9150509250925092565b61213481611f15565b82525050565b5f60208201905061214d5f83018461212b565b92915050565b5f6020828403121561216857612167611eee565b5b5f61217584828501611f6f565b91505092915050565b5f67ffffffffffffffff82111561219857612197611f9b565b5b6121a182611f8b565b9050602081019050919050565b5f6121c06121bb8461217e565b611ff9565b9050828152602081018484840111156121dc576121db611f87565b5b6121e7848285612043565b509392505050565b5f82601f83011261220357612202611f83565b5b81356122138482602086016121ae565b91505092915050565b5f6020828403121561223157612230611eee565b5b5f82013567ffffffffffffffff81111561224e5761224d611ef2565b5b61225a848285016121ef565b91505092915050565b5f6020828403121561227857612277611eee565b5b5f61228584828501611f3c565b91505092915050565b61229781611f50565b82525050565b5f6020820190506122b05f83018461228e565b92915050565b5f8115159050919050565b6122ca816122b6565b82525050565b5f81519050919050565b5f82825260208201905092915050565b8281835e5f83830152505050565b5f612302826122d0565b61230c81856122da565b935061231c8185602086016122ea565b61232581611f8b565b840191505092915050565b5f60c0820190506123435f8301896122c1565b818103602083015261235581886122f8565b9050612364604083018761228e565b612371606083018661228e565b61237e608083018561228e565b61238b60a083018461228e565b979650505050505050565b5f5f604083850312156123ac576123ab611eee565b5b5f6123b985828601611f3c565b92505060206123ca85828601611f6f565b9150509250929050565b5f5f5f606084860312156123eb576123ea611eee565b5b5f6123f886828701611f6f565b935050602061240986828701611f6f565b925050604084013567ffffffffffffffff81111561242a57612429611ef2565b5b61243686828701612092565b9150509250925092565b7f4e6f742062616e6b2061646d696e0000000000000000000000000000000000005f82015250565b5f612474600e836122da565b915061247f82612440565b602082019050919050565b5f6020820190508181035f8301526124a181612468565b9050919050565b7f496e73756666696369656e7420757365722062616c616e6365000000000000005f82015250565b5f6124dc6019836122da565b91506124e7826124a8565b602082019050919050565b5f6020820190508181035f830152612509816124d0565b9050919050565b5f81905092915050565b7f57495448445241570000000000000000000000000000000000000000000000005f82015250565b5f61254e600883612510565b91506125598261251a565b600882019050919050565b5f8160601b9050919050565b5f61257a82612564565b9050919050565b5f61258b82612570565b9050919050565b6125a361259e82611f15565b612581565b82525050565b5f819050919050565b6125c36125be82611f50565b6125a9565b82525050565b5f6125d382612542565b91506125df8286612592565b6014820191506125ef82856125b2565b6020820191506125ff82846125b2565b602082019150819050949350505050565b7f496e76616c69642075736572207369676e6174757265000000000000000000005f82015250565b5f6126446016836122da565b915061264f82612610565b602082019050919050565b5f6020820190508181035f83015261267181612638565b9050919050565b7f4e487b71000000000000000000000000000000000000000000000000000000005f52601160045260245ffd5b5f6126af82611f50565b91507fffffffffffffffffffffffffffffffffffffffffffffffffffffffffffffffff82036126e1576126e0612678565b5b600182019050919050565b5f6126f682611f50565b915061270183611f50565b925082820390508181111561271957612718612678565b5b92915050565b5f81905092915050565b50565b5f6127375f8361271f565b915061274282612729565b5f82019050919050565b5f6127568261272c565b9150819050919050565b7f5472616e73666572206661696c656400000000000000000000000000000000005f82015250565b5f612794600f836122da565b915061279f82612760565b602082019050919050565b5f6020820190508181035f8301526127c181612788565b9050919050565b7f55736572206e6f742072656769737465726564000000000000000000000000005f82015250565b5f6127fc6013836122da565b9150612807826127c8565b602082019050919050565b5f6020820190508181035f830152612829816127f0565b9050919050565b7f496e73756666696369656e742062616c616e63650000000000000000000000005f82015250565b5f6128646014836122da565b915061286f82612830565b602082019050919050565b5f6020820190508181035f83015261289181612858565b9050919050565b7f496e73756666696369656e7420726573657276650000000000000000000000005f82015250565b5f6128cc6014836122da565b91506128d782612898565b602082019050919050565b5f6020820190508181035f8301526128f9816128c0565b9050919050565b7f416c7265616479207265676973746572656400000000000000000000000000005f82015250565b5f6129346012836122da565b915061293f82612900565b602082019050919050565b5f6020820190508181035f83015261296181612928565b9050919050565b7f4e487b71000000000000000000000000000000000000000000000000000000005f52602260045260245ffd5b5f60028204905060018216806129ac57607f821691505b6020821081036129bf576129be612968565b5b50919050565b5f819050815f5260205f209050919050565b5f6020601f8301049050919050565b5f82821b905092915050565b5f60088302612a217fffffffffffffffffffffffffffffffffffffffffffffffffffffffffffffffff826129e6565b612a2b86836129e6565b95508019841693508086168417925050509392505050565b5f819050919050565b5f612a66612a61612a5c84611f50565b612a43565b611f50565b9050919050565b5f819050919050565b612a7f83612a4c565b612a93612a8b82612a6d565b8484546129f2565b825550505050565b5f5f905090565b612aaa612a9b565b612ab5818484612a76565b505050565b5b81811015612ad857612acd5f82612aa2565b600181019050612abb565b5050565b601f821115612b1d57612aee816129c5565b612af7846129d7565b81016020851015612b06578190505b612b1a612b12856129d7565b830182612aba565b50505b505050565b5f82821c905092915050565b5f612b3d5f1984600802612b22565b1980831691505092915050565b5f612b558383612b2e565b9150826002028217905092915050565b612b6e826122d0565b67ffffffffffffffff811115612b8757612b86611f9b565b5b612b918254612995565b612b9c828285612adc565b5f60209050601f831160018114612bcd575f8415612bbb578287015190505b612bc58582612b4a565b865550612c2c565b601f198416612bdb866129c5565b5f5b82811015612c0257848901518255600182019150602085019450602081019050612bdd565b86831015612c1f5784890151612c1b601f891682612b2e565b8355505b6001600288020188555050505b505050505050565b5f6020820190508181035f830152612c4c81846122f8565b905092915050565b7f526563697069656e74206e6f74207265676973746572656400000000000000005f82015250565b5f612c886018836122da565b9150612c9382612c54565b602082019050919050565b5f6020820190508181035f830152612cb581612c7c565b9050919050565b5f612cc682611f50565b9150612cd183611f50565b9250828201905080821115612ce957612ce8612678565b5b92915050565b7f4465706f73697420616d6f756e74206d757374206265203e20300000000000005f82015250565b5f612d23601a836122da565b9150612d2e82612cef565b602082019050919050565b5f6020820190508181035f830152612d5081612d17565b9050919050565b7f416c7265616479206861766520616e20616374697665206c6f616e00000000005f82015250565b5f612d8b601b836122da565b9150612d9682612d57565b602082019050919050565b5f6020820190508181035f830152612db881612d7f565b9050919050565b7f4c6f616e20616d6f756e74206d757374206265203e20300000000000000000005f82015250565b5f612df36017836122da565b9150612dfe82612dbf565b602082019050919050565b5f6020820190508181035f830152612e2081612de7565b9050919050565b5f612e328287612592565b601482019150612e4282866125b2565b602082019150612e5282856125b2565b602082019150612e6282846125b2565b60208201915081905095945050505050565b7f496e76616c69642062616e6b207369676e6174757265000000000000000000005f82015250565b5f612ea86016836122da565b9150612eb382612e74565b602082019050919050565b5f6020820190508181035f830152612ed581612e9c565b9050919050565b7f42616e6b2068617320696e73756666696369656e74206c6971756964697479005f82015250565b5f612f10601f836122da565b9150612f1b82612edc565b602082019050919050565b5f6020820190508181035f830152612f3d81612f04565b9050919050565b5f604082019050612f575f83018561228e565b612f64602083018461228e565b9392505050565b5f612f7582611f50565b9150612f8083611f50565b9250828202612f8e81611f50565b91508282048414831517612fa557612fa4612678565b5b5092915050565b7f4e487b71000000000000000000000000000000000000000000000000000000005f52601260045260245ffd5b5f612fe382611f50565b9150612fee83611f50565b925082612ffe57612ffd612fac565b5b828204905092915050565b7f4e6f20616374697665206c6f616e0000000000000000000000000000000000005f82015250565b5f61303d600e836122da565b915061304882613009565b602082019050919050565b5f6020820190508181035f83015261306a81613031565b9050919050565b7f52657061796d656e7420616d6f756e74206d757374206265203e2030000000005f82015250565b5f6130a5601c836122da565b91506130b082613071565b602082019050919050565b5f6020820190508181035f8301526130d281613099565b9050919050565b5f6060820190506130ec5f83018661228e565b6130f9602083018561228e565b613106604083018461228e565b949350505050565b7f4e487b71000000000000000000000000000000000000000000000000000000005f52602160045260245ffd5b5f819050919050565b61314d8161313b565b82525050565b5f6020820190506131665f830184613144565b92915050565b5f60ff82169050919050565b6131818161316c565b82525050565b5f60808201905061319a5f830187613144565b6131a76020830186613178565b6131b46040830185613144565b6131c16060830184613144565b9594505050505056fea264697066735822122026e5716933d0b23126c3d8eb9767c00255be4322372a3d889748e99e3c9ce30864736f6c634300081c0033",
  "linkReferences": {},
  "deployedLinkReferences": {}
}