{
  "_format": "hh-sol-artifact-1",
  "contractName": "DecentralizedBank",
  "sourceName": "contracts/DecentralizedBank.sol",
  "abi": [
    {
      "inputs": [],
      "stateMutability": "nonpayable",
      "type": "constructor"
    },
    {
      "inputs": [],
      "name": "ECDSAInvalidSignature",
      "type": "error"
    },
    {
      "inputs": [
        {
          "internalType": "uint256",
          "name": "length",
          "type": "uint256"
        }
      ],
      "name": "ECDSAInvalidSignatureLength",
      "type": "error"
    },
    {
      "inputs": [
        {
          "internalType": "bytes32",
          "name": "s",
          "type": "bytes32"
        }
      ],
      "name": "ECDSAInvalidSignatureS",
      "type": "error"
    },
    {
      "anonymous": false,
      "inputs": [
        {
          "indexed": true,
          "internalType": "address",
          "name": "user",
          "type": "address"
        },
        {
          "indexed": false,
          "internalType": "uint256",
          "name": "amount",
          "type": "uint256"
        }
      ],
      "name": "Deposit",
      "type": "event"
    },
    {
      "anonymous": false,
      "inputs": [
        {
          "indexed": true,
          "internalType": "address",
          "name": "user",
          "type": "address"
        },
        {
          "indexed": false,
          "internalType": "uint256",
          "name": "principalPaid",
          "type": "uint256"
        },
        {
          "indexed": false,
          "internalType": "uint256",
          "name": "interestPaid",
          "type": "uint256"
        },
        {
          "indexed": false,
          "internalType": "uint256",
          "name": "remainingPrincipal",
          "type": "uint256"
        }
      ],
      "name": "LoanRepaid",
      "type": "event"
    },
    {
      "anonymous": false,
      "inputs": [
        {
          "indexed": true,
          "internalType": "address",
          "name": "user",
          "type": "address"
        },
        {
          "indexed": false,
          "internalType": "uint256",
          "name": "amount",
          "type": "uint256"
        },
        {
          "indexed": false,
          "internalType": "uint256",
          "name": "interestRate",
          "type": "uint256"
        }
      ],
      "name": "LoanTaken",
      "type": "event"
    },
    {
      "anonymous": false,
      "inputs": [
        {
          "indexed": true,
          "internalType": "address",
          "name": "from",
          "type": "address"
        },
        {
          "indexed": true,
          "internalType": "address",
          "name": "to",
          "type": "address"
        },
        {
          "indexed": false,
          "internalType": "uint256",
          "name": "amount",
          "type": "uint256"
        }
      ],
      "name": "Transfer",
      "type": "event"
    },
    {
      "anonymous": false,
      "inputs": [
        {
          "indexed": true,
          "internalType": "address",
          "name": "user",
          "type": "address"
        },
        {
          "indexed": false,
          "internalType": "string",
          "name": "name",
          "type": "string"
        }
      ],
      "name": "UserRegistered",
      "type": "event"
    },
    {
      "anonymous": false,
      "inputs": [
        {
          "indexed": true,
          "internalType": "address",
          "name": "user",
          "type": "address"
        },
        {
          "indexed": false,
          "internalType": "uint256",
          "name": "amount",
          "type": "uint256"
        }
      ],
      "name": "Withdraw",
      "type": "event"
    },
    {
      "inputs": [
        {
          "internalType": "address",
          "name": "_user",
          "type": "address"
        },
        {
          "internalType": "uint256",
          "name": "_amount",
          "type": "uint256"
        },
        {
          "internalType": "bytes",
          "name": "_signature",
          "type": "bytes"
        }
      ],
      "name": "adminWithdrawUserFunds",
      "outputs": [],
      "stateMutability": "nonpayable",
      "type": "function"
    },
    {
      "inputs": [],
      "name": "bankAdmin",
      "outputs": [
        {
          "internalType": "address",
          "name": "",
          "type": "address"
        }
      ],
      "stateMutability": "view",
      "type": "function"
    },
    {
      "inputs": [
        {
          "internalType": "address",
          "name": "_user",
          "type": "address"
        }
      ],
      "name": "calculateInterest",
      "outputs": [
        {
          "internalType": "uint256",
          "name": "",
          "type": "uint256"
        }
      ],
      "stateMutability": "view",
      "type": "function"
    },
    {
      "inputs": [],
      "name": "deposit",
      "outputs": [],
      "stateMutability": "payable",
      "type": "function"
    },
    {
      "inputs": [],
      "name": "fundBank",
      "outputs": [],
      "stateMutability": "payable",
      "type": "function"
    },
    {
      "inputs": [
        {
          "internalType": "address",
          "name": "",
          "type": "address"
        }
      ],
      "name": "nonces",
      "outputs": [
        {
          "internalType": "uint256",
          "name": "",
          "type": "uint256"
        }
      ],
      "stateMutability": "view",
      "type": "function"
    },
    {
      "inputs": [
        {
          "internalType": "string",
          "name": "_name",
          "type": "string"
        }
      ],
      "name": "registerUser",
      "outputs": [],
      "stateMutability": "nonpayable",
      "type": "function"
    },
    {
      "inputs": [
        {
          "internalType": "uint256",
          "name": "_amount",
          "type": "uint256"
        }
      ],
      "name": "repayLoan",
      "outputs": [],
      "stateMutability": "nonpayable",
      "type": "function"
    },
    {
      "inputs": [
        {
          "internalType": "uint256",
          "name": "_amount",
          "type": "uint256"
        },
        {
          "internalType": "uint256",
          "name": "_interestRate",
          "type": "uint256"
        },
        {
          "internalType": "bytes",
          "name": "_signature",
          "type": "bytes"
        }
      ],
      "name": "takeLoan",
      "outputs": [],
      "stateMutability": "nonpayable",
      "type": "function"
    },
    {
      "inputs": [],
      "name": "totalBankReserve",
      "outputs": [
        {
          "internalType": "uint256",
          "name": "",
          "type": "uint256"
        }
      ],
      "stateMutability": "view",
      "type": "function"
    },
    {
      "inputs": [
        {
          "internalType": "address",
          "name": "_to",
          "type": "address"
        },
        {
          "internalType": "uint256",
          "name": "_amount",
          "type": "uint256"
        }
      ],
      "name": "transfer",
      "outputs": [],
      "stateMutability": "nonpayable",
      "type": "function"
    },
    {
      "inputs": [
        {
          "internalType": "address",
          "name": "",
          "type": "address"
        }
      ],
      "name": "users",
      "outputs": [
        {
          "internalType": "bool",
          "name": "isRegistered",
          "type": "bool"
        },
        {
          "internalType": "string",
          "name": "name",
          "type": "string"
        },
        {
          "internalType": "uint256",
          "name": "balance",
          "type": "uint256"
        },
        {
          "internalType": "uint256",
          "name": "loanAmount",
          "type": "uint256"
        },
        {
          "internalType": "uint256",
          "name": "loanTimestamp",
          "type": "uint256"
        },
        {
          "internalType": "uint256",
          "name": "interestRate",
          "type": "uint256"
        }
      ],
      "stateMutability": "view",
      "type": "function"
    },
    {
      "inputs": [
        {
          "internalType": "uint256",
          "name": "_amount",
          "type": "uint256"
        }
      ],
      "name": "withdraw",
      "outputs": [],
      "stateMutability": "nonpayable",
      "type": "function"
    },
    {
      "inputs": [
        {
          "internalType": "uint256",
          "name": "_amount",
          "type": "uint256"
        }
      ],
      "name": "withdrawReserve",
      "outputs": [],
      "stateMutability": "nonpayable",
      "type": "function"
    }
  ],
  "bytecode": "0x6080604052348015600e575f5ffd5b50335f5f6101000a81548173ffffffffffffffffffffffffffffffffffffffff021916908373ffffffffffffffffffffffffffffffffffffffff1602179055506133cd8061005b5f395ff3fe6080604052600436106100dc575f3560e01c8063a9059cbb1161007e578063d0e30db011610058578063d0e30db014610281578063d12fb6ce1461028b578063e11932cf146102b3578063f7e9b642146102ef576100dc565b8063a9059cbb14610227578063aa07b2ff1461024f578063ab7b1c8914610259576100dc565b80633e696f38116100ba5780633e696f381461015a578063704f1b94146101825780637ecebe00146101aa578063a87430ba146101e6576100dc565b806302b71d7f146100e05780631aa9a27f146101085780632e1a7d4d14610132575b5f5ffd5b3480156100eb575f5ffd5b5061010660048036038101906101019190612170565b610319565b005b348015610113575f5ffd5b5061011c61069b565b60405161012991906121eb565b60405180910390f35b34801561013d575f5ffd5b5061015860048036038101906101539190612204565b6106bf565b005b348015610165575f5ffd5b50610180600480360381019061017b9190612204565b610935565b005b34801561018d575f5ffd5b506101a860048036038101906101a391906122cd565b610acc565b005b3480156101b5575f5ffd5b506101d060048036038101906101cb9190612314565b610c74565b6040516101dd919061234e565b60405180910390f35b3480156101f1575f5ffd5b5061020c60048036038101906102079190612314565b610c89565b60405161021e969594939291906123e1565b60405180910390f35b348015610232575f5ffd5b5061024d60048036038101906102489190612447565b610d53565b005b610257611001565b005b348015610264575f5ffd5b5061027f600480360381019061027a9190612204565b61101b565b005b610289611507565b005b348015610296575f5ffd5b506102b160048036038101906102ac9190612485565b611692565b005b3480156102be575f5ffd5b506102d960048036038101906102d49190612314565b611b14565b6040516102e6919061234e565b60405180910390f35b3480156102fa575f5ffd5b50610303611c95565b604051610310919061234e565b60405180910390f35b5f5f9054906101000a900473ffffffffffffffffffffffffffffffffffffffff1673ffffffffffffffffffffffffffffffffffffffff163373ffffffffffffffffffffffffffffffffffffffff16146103a7576040517f08c379a000000000000000000000000000000000000000000000000000000000815260040161039e9061253b565b60405180910390fd5b8160015f8573ffffffffffffffffffffffffffffffffffffffff1673ffffffffffffffffffffffffffffffffffffffff1681526020019081526020015f2060020154101561042a576040517f08c379a0000000000000000000000000000000000000000000000000000000008152600401610421906125a3565b60405180910390fd5b5f60025f8573ffffffffffffffffffffffffffffffffffffffff1673ffffffffffffffffffffffffffffffffffffffff1681526020019081526020015f205490505f8484836040516020016104819392919061267a565b6040516020818303038152906040528051906020012090505f6104a382611c9b565b90505f6104b98583611cce90919063ffffffff16565b90508673ffffffffffffffffffffffffffffffffffffffff168173ffffffffffffffffffffffffffffffffffffffff1614610529576040517f08c379a00000000000000000000000000000000000000000000000000000000081526004016105209061270b565b60405180910390fd5b60025f8873ffffffffffffffffffffffffffffffffffffffff1673ffffffffffffffffffffffffffffffffffffffff1681526020019081526020015f205f81548092919061057690612756565b91905055508560015f8973ffffffffffffffffffffffffffffffffffffffff1673ffffffffffffffffffffffffffffffffffffffff1681526020019081526020015f206002015f8282546105ca919061279d565b925050819055508560035f8282546105e2919061279d565b925050819055505f3373ffffffffffffffffffffffffffffffffffffffff168760405161060e906127fd565b5f6040518083038185875af1925050503d805f8114610648576040519150601f19603f3d011682016040523d82523d5f602084013e61064d565b606091505b5050905080610691576040517f08c379a00000000000000000000000000000000000000000000000000000000081526004016106889061285b565b60405180910390fd5b5050505050505050565b5f5f9054906101000a900473ffffffffffffffffffffffffffffffffffffffff1681565b60015f3373ffffffffffffffffffffffffffffffffffffffff1673ffffffffffffffffffffffffffffffffffffffff1681526020019081526020015f205f015f9054906101000a900460ff1661074a576040517f08c379a0000000000000000000000000000000000000000000000000000000008152600401610741906128c3565b60405180910390fd5b8060015f3373ffffffffffffffffffffffffffffffffffffffff1673ffffffffffffffffffffffffffffffffffffffff1681526020019081526020015f206002015410156107cd576040517f08c379a00000000000000000000000000000000000000000000000000000000081526004016107c49061292b565b60405180910390fd5b8060015f3373ffffffffffffffffffffffffffffffffffffffff1673ffffffffffffffffffffffffffffffffffffffff1681526020019081526020015f206002015f82825461081c919061279d565b925050819055508060035f828254610834919061279d565b925050819055505f3373ffffffffffffffffffffffffffffffffffffffff1682604051610860906127fd565b5f6040518083038185875af1925050503d805f811461089a576040519150601f19603f3d011682016040523d82523d5f602084013e61089f565b606091505b50509050806108e3576040517f08c379a00000000000000000000000000000000000000000000000000000000081526004016108da9061285b565b60405180910390fd5b3373ffffffffffffffffffffffffffffffffffffffff167f884edad9ce6fa2440d8a54cc123490eb96d2768479d49ff9c7366125a942436483604051610929919061234e565b60405180910390a25050565b5f5f9054906101000a900473ffffffffffffffffffffffffffffffffffffffff1673ffffffffffffffffffffffffffffffffffffffff163373ffffffffffffffffffffffffffffffffffffffff16146109c3576040517f08c379a00000000000000000000000000000000000000000000000000000000081526004016109ba9061253b565b60405180910390fd5b806003541015610a08576040517f08c379a00000000000000000000000000000000000000000000000000000000081526004016109ff90612993565b60405180910390fd5b8060035f828254610a19919061279d565b925050819055505f3373ffffffffffffffffffffffffffffffffffffffff1682604051610a45906127fd565b5f6040518083038185875af1925050503d805f8114610a7f576040519150601f19603f3d011682016040523d82523d5f602084013e610a84565b606091505b5050905080610ac8576040517f08c379a0000000000000000000000000000000000000000000000000000000008152600401610abf9061285b565b60405180910390fd5b5050565b60015f3373ffffffffffffffffffffffffffffffffffffffff1673ffffffffffffffffffffffffffffffffffffffff1681526020019081526020015f205f015f9054906101000a900460ff1615610b58576040517f08c379a0000000000000000000000000000000000000000000000000000000008152600401610b4f906129fb565b60405180910390fd5b6040518060c001604052806001151581526020018281526020015f81526020015f81526020015f81526020015f81525060015f3373ffffffffffffffffffffffffffffffffffffffff1673ffffffffffffffffffffffffffffffffffffffff1681526020019081526020015f205f820151815f015f6101000a81548160ff0219169083151502179055506020820151816001019081610bf79190612c16565b5060408201518160020155606082015181600301556080820151816004015560a082015181600501559050503373ffffffffffffffffffffffffffffffffffffffff167f48cac28ad4dc618e15f4c2dd5e97751182f166de97b25618318b2112aa951a2f82604051610c699190612ce5565b60405180910390a250565b6002602052805f5260405f205f915090505481565b6001602052805f5260405f205f91509050805f015f9054906101000a900460ff1690806001018054610cba90612a46565b80601f0160208091040260200160405190810160405280929190818152602001828054610ce690612a46565b8015610d315780601f10610d0857610100808354040283529160200191610d31565b820191905f5260205f20905b815481529060010190602001808311610d1457829003601f168201915b5050505050908060020154908060030154908060040154908060050154905086565b60015f3373ffffffffffffffffffffffffffffffffffffffff1673ffffffffffffffffffffffffffffffffffffffff1681526020019081526020015f205f015f9054906101000a900460ff16610dde576040517f08c379a0000000000000000000000000000000000000000000000000000000008152600401610dd5906128c3565b60405180910390fd5b60015f8373ffffffffffffffffffffffffffffffffffffffff1673ffffffffffffffffffffffffffffffffffffffff1681526020019081526020015f205f015f9054906101000a900460ff16610e69576040517f08c379a0000000000000000000000000000000000000000000000000000000008152600401610e6090612d4f565b60405180910390fd5b8060015f3373ffffffffffffffffffffffffffffffffffffffff1673ffffffffffffffffffffffffffffffffffffffff1681526020019081526020015f20600201541015610eec576040517f08c379a0000000000000000000000000000000000000000000000000000000008152600401610ee39061292b565b60405180910390fd5b8060015f3373ffffffffffffffffffffffffffffffffffffffff1673ffffffffffffffffffffffffffffffffffffffff1681526020019081526020015f206002015f828254610f3b919061279d565b925050819055508060015f8473ffffffffffffffffffffffffffffffffffffffff1673ffffffffffffffffffffffffffffffffffffffff1681526020019081526020015f206002015f828254610f919190612d6d565b925050819055508173ffffffffffffffffffffffffffffffffffffffff163373ffffffffffffffffffffffffffffffffffffffff167fddf252ad1be2c89b69c2b068fc378daa952ba7f163c4a11628f55a4df523b3ef83604051610ff5919061234e565b60405180910390a35050565b3460035f8282546110129190612d6d565b92505081905550565b60015f3373ffffffffffffffffffffffffffffffffffffffff1673ffffffffffffffffffffffffffffffffffffffff1681526020019081526020015f205f015f9054906101000a900460ff166110a6576040517f08c379a000000000000000000000000000000000000000000000000000000000815260040161109d906128c3565b60405180910390fd5b5f60015f3373ffffffffffffffffffffffffffffffffffffffff1673ffffffffffffffffffffffffffffffffffffffff1681526020019081526020015f206003015411611128576040517f08c379a000000000000000000000000000000000000000000000000000000000815260040161111f90612dea565b60405180910390fd5b5f811161116a576040517f08c379a000000000000000000000000000000000000000000000000000000000815260040161116190612e52565b60405180910390fd5b5f61117433611b14565b90505f8160015f3373ffffffffffffffffffffffffffffffffffffffff1673ffffffffffffffffffffffffffffffffffffffff1681526020019081526020015f20600301546111c39190612d6d565b905080831115611208576040517f08c379a00000000000000000000000000000000000000000000000000000000081526004016111ff90612ee0565b60405180910390fd5b8260015f3373ffffffffffffffffffffffffffffffffffffffff1673ffffffffffffffffffffffffffffffffffffffff1681526020019081526020015f2060020154101561128b576040517f08c379a000000000000000000000000000000000000000000000000000000000815260040161128290612f6e565b60405180910390fd5b8260015f3373ffffffffffffffffffffffffffffffffffffffff1673ffffffffffffffffffffffffffffffffffffffff1681526020019081526020015f206002015f8282546112da919061279d565b925050819055505f5f8385106113005783915083856112f9919061279d565b9050611307565b8491505f90505b8483611313919061279d565b60015f3373ffffffffffffffffffffffffffffffffffffffff1673ffffffffffffffffffffffffffffffffffffffff1681526020019081526020015f20600301819055504260015f3373ffffffffffffffffffffffffffffffffffffffff1673ffffffffffffffffffffffffffffffffffffffff1681526020019081526020015f20600401819055505f60015f3373ffffffffffffffffffffffffffffffffffffffff1673ffffffffffffffffffffffffffffffffffffffff1681526020019081526020015f20600301540361146e575f60015f3373ffffffffffffffffffffffffffffffffffffffff1673ffffffffffffffffffffffffffffffffffffffff1681526020019081526020015f20600501819055505f60015f3373ffffffffffffffffffffffffffffffffffffffff1673ffffffffffffffffffffffffffffffffffffffff1681526020019081526020015f20600401819055505b3373ffffffffffffffffffffffffffffffffffffffff167f2cebe3c4a7e8e81ca2035a6cb3ee450bb6401d9b6636652e183583f047049572828460015f3373ffffffffffffffffffffffffffffffffffffffff1673ffffffffffffffffffffffffffffffffffffffff1681526020019081526020015f20600301546040516114f893929190612f8c565b60405180910390a25050505050565b60015f3373ffffffffffffffffffffffffffffffffffffffff1673ffffffffffffffffffffffffffffffffffffffff1681526020019081526020015f205f015f9054906101000a900460ff16611592576040517f08c379a0000000000000000000000000000000000000000000000000000000008152600401611589906128c3565b60405180910390fd5b5f34116115d4576040517f08c379a00000000000000000000000000000000000000000000000000000000081526004016115cb9061300b565b60405180910390fd5b3460015f3373ffffffffffffffffffffffffffffffffffffffff1673ffffffffffffffffffffffffffffffffffffffff1681526020019081526020015f206002015f8282546116239190612d6d565b925050819055503460035f82825461163b9190612d6d565b925050819055503373ffffffffffffffffffffffffffffffffffffffff167fe1fffcc4923d04b559f4d29a8bfc6cda04eb5b0d3c460751c2402c5c5cc9109c34604051611688919061234e565b60405180910390a2565b60015f3373ffffffffffffffffffffffffffffffffffffffff1673ffffffffffffffffffffffffffffffffffffffff1681526020019081526020015f205f015f9054906101000a900460ff1661171d576040517f08c379a0000000000000000000000000000000000000000000000000000000008152600401611714906128c3565b60405180910390fd5b5f60015f3373ffffffffffffffffffffffffffffffffffffffff1673ffffffffffffffffffffffffffffffffffffffff1681526020019081526020015f20600301541461179f576040517f08c379a000000000000000000000000000000000000000000000000000000000815260040161179690613073565b60405180910390fd5b5f83116117e1576040517f08c379a00000000000000000000000000000000000000000000000000000000081526004016117d8906130db565b60405180910390fd5b5f60025f3373ffffffffffffffffffffffffffffffffffffffff1673ffffffffffffffffffffffffffffffffffffffff1681526020019081526020015f205490505f3385858460405160200161183a94939291906130f9565b6040516020818303038152906040528051906020012090505f61185c82611c9b565b90505f6118728583611cce90919063ffffffff16565b90505f5f9054906101000a900473ffffffffffffffffffffffffffffffffffffffff1673ffffffffffffffffffffffffffffffffffffffff168173ffffffffffffffffffffffffffffffffffffffff1614611902576040517f08c379a00000000000000000000000000000000000000000000000000000000081526004016118f990613190565b60405180910390fd5b60025f3373ffffffffffffffffffffffffffffffffffffffff1673ffffffffffffffffffffffffffffffffffffffff1681526020019081526020015f205f81548092919061194f90612756565b919050555086471015611997576040517f08c379a000000000000000000000000000000000000000000000000000000000815260040161198e906131f8565b60405180910390fd5b8660015f3373ffffffffffffffffffffffffffffffffffffffff1673ffffffffffffffffffffffffffffffffffffffff1681526020019081526020015f20600301819055504260015f3373ffffffffffffffffffffffffffffffffffffffff1673ffffffffffffffffffffffffffffffffffffffff1681526020019081526020015f20600401819055508560015f3373ffffffffffffffffffffffffffffffffffffffff1673ffffffffffffffffffffffffffffffffffffffff1681526020019081526020015f20600501819055508660015f3373ffffffffffffffffffffffffffffffffffffffff1673ffffffffffffffffffffffffffffffffffffffff1681526020019081526020015f206002015f828254611ab59190612d6d565b925050819055503373ffffffffffffffffffffffffffffffffffffffff167e6b9bb4766cf5ab74b890df959e4fad0e54b1c3885e49c9541d36253a6e39e68888604051611b03929190613216565b60405180910390a250505050505050565b5f5f60015f8473ffffffffffffffffffffffffffffffffffffffff1673ffffffffffffffffffffffffffffffffffffffff1681526020019081526020015f206040518060c00160405290815f82015f9054906101000a900460ff16151515158152602001600182018054611b8790612a46565b80601f0160208091040260200160405190810160405280929190818152602001828054611bb390612a46565b8015611bfe5780601f10611bd557610100808354040283529160200191611bfe565b820191905f5260205f20905b815481529060010190602001808311611be157829003601f168201915b5050505050815260200160028201548152602001600382015481526020016004820154815260200160058201548152505090505f816060015103611c45575f915050611c90565b5f816080015142611c56919061279d565b90505f63bbf81e00828460a001518560600151611c73919061323d565b611c7d919061323d565b611c8791906132ab565b90508093505050505b919050565b60035481565b5f7f19457468657265756d205369676e6564204d6573736167653a0a3332000000005f5281601c52603c5f209050919050565b5f5f5f5f611cdc8686611cf8565b925092509250611cec8282611d4d565b82935050505092915050565b5f5f5f6041845103611d38575f5f5f602087015192506040870151915060608701515f1a9050611d2a88828585611eaf565b955095509550505050611d46565b5f600285515f1b9250925092505b9250925092565b5f6003811115611d6057611d5f6132db565b5b826003811115611d7357611d726132db565b5b0315611eab5760016003811115611d8d57611d8c6132db565b5b826003811115611da057611d9f6132db565b5b03611dd7576040517ff645eedf00000000000000000000000000000000000000000000000000000000815260040160405180910390fd5b60026003811115611deb57611dea6132db565b5b826003811115611dfe57611dfd6132db565b5b03611e4257805f1c6040517ffce698f7000000000000000000000000000000000000000000000000000000008152600401611e39919061234e565b60405180910390fd5b600380811115611e5557611e546132db565b5b826003811115611e6857611e676132db565b5b03611eaa57806040517fd78bce0c000000000000000000000000000000000000000000000000000000008152600401611ea19190613320565b60405180910390fd5b5b5050565b5f5f5f7f7fffffffffffffffffffffffffffffff5d576e7357a4501ddfe92f46681b20a0845f1c1115611eeb575f600385925092509250611f8c565b5f6001888888886040515f8152602001604052604051611f0e9493929190613354565b6020604051602081039080840390855afa158015611f2e573d5f5f3e3d5ffd5b5050506020604051035190505f73ffffffffffffffffffffffffffffffffffffffff168173ffffffffffffffffffffffffffffffffffffffff1603611f7f575f60015f5f1b93509350935050611f8c565b805f5f5f1b935093509350505b9450945094915050565b5f604051905090565b5f5ffd5b5f5ffd5b5f73ffffffffffffffffffffffffffffffffffffffff82169050919050565b5f611fd082611fa7565b9050919050565b611fe081611fc6565b8114611fea575f5ffd5b50565b5f81359050611ffb81611fd7565b92915050565b5f819050919050565b61201381612001565b811461201d575f5ffd5b50565b5f8135905061202e8161200a565b92915050565b5f5ffd5b5f5ffd5b5f601f19601f8301169050919050565b7f4e487b71000000000000000000000000000000000000000000000000000000005f52604160045260245ffd5b6120828261203c565b810181811067ffffffffffffffff821117156120a1576120a061204c565b5b80604052505050565b5f6120b3611f96565b90506120bf8282612079565b919050565b5f67ffffffffffffffff8211156120de576120dd61204c565b5b6120e78261203c565b9050602081019050919050565b828183375f83830152505050565b5f61211461210f846120c4565b6120aa565b9050828152602081018484840111156121305761212f612038565b5b61213b8482856120f4565b509392505050565b5f82601f83011261215757612156612034565b5b8135612167848260208601612102565b91505092915050565b5f5f5f6060848603121561218757612186611f9f565b5b5f61219486828701611fed565b93505060206121a586828701612020565b925050604084013567ffffffffffffffff8111156121c6576121c5611fa3565b5b6121d286828701612143565b9150509250925092565b6121e581611fc6565b82525050565b5f6020820190506121fe5f8301846121dc565b92915050565b5f6020828403121561221957612218611f9f565b5b5f61222684828501612020565b91505092915050565b5f67ffffffffffffffff8211156122495761224861204c565b5b6122528261203c565b9050602081019050919050565b5f61227161226c8461222f565b6120aa565b90508281526020810184848401111561228d5761228c612038565b5b6122988482856120f4565b509392505050565b5f82601f8301126122b4576122b3612034565b5b81356122c484826020860161225f565b91505092915050565b5f602082840312156122e2576122e1611f9f565b5b5f82013567ffffffffffffffff8111156122ff576122fe611fa3565b5b61230b848285016122a0565b91505092915050565b5f6020828403121561232957612328611f9f565b5b5f61233684828501611fed565b91505092915050565b61234881612001565b82525050565b5f6020820190506123615f83018461233f565b92915050565b5f8115159050919050565b61237b81612367565b82525050565b5f81519050919050565b5f82825260208201905092915050565b8281835e5f83830152505050565b5f6123b382612381565b6123bd818561238b565b93506123cd81856020860161239b565b6123d68161203c565b840191505092915050565b5f60c0820190506123f45f830189612372565b818103602083015261240681886123a9565b9050612415604083018761233f565b612422606083018661233f565b61242f608083018561233f565b61243c60a083018461233f565b979650505050505050565b5f5f6040838503121561245d5761245c611f9f565b5b5f61246a85828601611fed565b925050602061247b85828601612020565b9150509250929050565b5f5f5f6060848603121561249c5761249b611f9f565b5b5f6124a986828701612020565b93505060206124ba86828701612020565b925050604084013567ffffffffffffffff8111156124db576124da611fa3565b5b6124e786828701612143565b9150509250925092565b7f4e6f742062616e6b2061646d696e0000000000000000000000000000000000005f82015250565b5f612525600e8361238b565b9150612530826124f1565b602082019050919050565b5f6020820190508181035f83015261255281612519565b9050919050565b7f496e73756666696369656e7420757365722062616c616e6365000000000000005f82015250565b5f61258d60198361238b565b915061259882612559565b602082019050919050565b5f6020820190508181035f8301526125ba81612581565b9050919050565b5f81905092915050565b7f57495448445241570000000000000000000000000000000000000000000000005f82015250565b5f6125ff6008836125c1565b915061260a826125cb565b600882019050919050565b5f8160601b9050919050565b5f61262b82612615565b9050919050565b5f61263c82612621565b9050919050565b61265461264f82611fc6565b612632565b82525050565b5f819050919050565b61267461266f82612001565b61265a565b82525050565b5f612684826125f3565b91506126908286612643565b6014820191506126a08285612663565b6020820191506126b08284612663565b602082019150819050949350505050565b7f496e76616c69642075736572207369676e6174757265000000000000000000005f82015250565b5f6126f560168361238b565b9150612700826126c1565b602082019050919050565b5f6020820190508181035f830152612722816126e9565b9050919050565b7f4e487b71000000000000000000000000000000000000000000000000000000005f52601160045260245ffd5b5f61276082612001565b91507fffffffffffffffffffffffffffffffffffffffffffffffffffffffffffffffff820361279257612791612729565b5b600182019050919050565b5f6127a782612001565b91506127b283612001565b92508282039050818111156127ca576127c9612729565b5b92915050565b5f81905092915050565b50565b5f6127e85f836127d0565b91506127f3826127da565b5f82019050919050565b5f612807826127dd565b9150819050919050565b7f5472616e73666572206661696c656400000000000000000000000000000000005f82015250565b5f612845600f8361238b565b915061285082612811565b602082019050919050565b5f6020820190508181035f83015261287281612839565b9050919050565b7f55736572206e6f742072656769737465726564000000000000000000000000005f82015250565b5f6128ad60138361238b565b91506128b882612879565b602082019050919050565b5f6020820190508181035f8301526128da816128a1565b9050919050565b7f496e73756666696369656e742062616c616e63650000000000000000000000005f82015250565b5f61291560148361238b565b9150612920826128e1565b602082019050919050565b5f6020820190508181035f83015261294281612909565b9050919050565b7f496e73756666696369656e7420726573657276650000000000000000000000005f82015250565b5f61297d60148361238b565b915061298882612949565b602082019050919050565b5f6020820190508181035f8301526129aa81612971565b9050919050565b7f416c7265616479207265676973746572656400000000000000000000000000005f82015250565b5f6129e560128361238b565b91506129f0826129b1565b602082019050919050565b5f6020820190508181035f830152612a12816129d9565b9050919050565b7f4e487b71000000000000000000000000000000000000000000000000000000005f52602260045260245ffd5b5f6002820490506001821680612a5d57607f821691505b602082108103612a7057612a6f612a19565b5b50919050565b5f819050815f5260205f209050919050565b5f6020601f8301049050919050565b5f82821b905092915050565b5f60088302612ad27fffffffffffffffffffffffffffffffffffffffffffffffffffffffffffffffff82612a97565b612adc8683612a97565b95508019841693508086168417925050509392505050565b5f819050919050565b5f612b17612b12612b0d84612001565b612af4565b612001565b9050919050565b5f819050919050565b612b3083612afd565b612b44612b3c82612b1e565b848454612aa3565b825550505050565b5f5f905090565b612b5b612b4c565b612b66818484612b27565b505050565b5b81811015612b8957612b7e5f82612b53565b600181019050612b6c565b5050565b601f821115612bce57612b9f81612a76565b612ba884612a88565b81016020851015612bb7578190505b612bcb612bc385612a88565b830182612b6b565b50505b505050565b5f82821c905092915050565b5f612bee5f1984600802612bd3565b1980831691505092915050565b5f612c068383612bdf565b9150826002028217905092915050565b612c1f82612381565b67ffffffffffffffff811115612c3857612c3761204c565b5b612c428254612a46565b612c4d828285612b8d565b5f60209050601f831160018114612c7e575f8415612c6c578287015190505b612c768582612bfb565b865550612cdd565b601f198416612c8c86612a76565b5f5b82811015612cb357848901518255600182019150602085019450602081019050612c8e565b86831015612cd05784890151612ccc601f891682612bdf565b8355505b6001600288020188555050505b505050505050565b5f6020820190508181035f830152612cfd81846123a9565b905092915050565b7f526563697069656e74206e6f74207265676973746572656400000000000000005f82015250565b5f612d3960188361238b565b9150612d4482612d05565b602082019050919050565b5f6020820190508181035f830152612d6681612d2d565b9050919050565b5f612d7782612001565b9150612d8283612001565b9250828201905080821115612d9a57612d99612729565b5b92915050565b7f4e6f20616374697665206c6f616e0000000000000000000000000000000000005f82015250565b5f612dd4600e8361238b565b9150612ddf82612da0565b602082019050919050565b5f6020820190508181035f830152612e0181612dc8565b9050919050565b7f52657061796d656e7420616d6f756e74206d757374206265203e2030000000005f82015250565b5f612e3c601c8361238b565b9150612e4782612e08565b602082019050919050565b5f6020820190508181035f830152612e6981612e30565b9050919050565b7f52657061796d656e7420616d6f756e74206578636565647320746f74616c20645f8201527f7565000000000000000000000000000000000000000000000000000000000000602082015250565b5f612eca60228361238b565b9150612ed582612e70565b604082019050919050565b5f6020820190508181035f830152612ef781612ebe565b9050919050565b7f496e73756666696369656e742062616e6b2062616c616e636520746f207265705f8201527f6179206c6f616e00000000000000000000000000000000000000000000000000602082015250565b5f612f5860278361238b565b9150612f6382612efe565b604082019050919050565b5f6020820190508181035f830152612f8581612f4c565b9050919050565b5f606082019050612f9f5f83018661233f565b612fac602083018561233f565b612fb9604083018461233f565b949350505050565b7f4465706f73697420616d6f756e74206d757374206265203e20300000000000005f82015250565b5f612ff5601a8361238b565b915061300082612fc1565b602082019050919050565b5f6020820190508181035f83015261302281612fe9565b9050919050565b7f416c7265616479206861766520616e20616374697665206c6f616e00000000005f82015250565b5f61305d601b8361238b565b915061306882613029565b602082019050919050565b5f6020820190508181035f83015261308a81613051565b9050919050565b7f4c6f616e20616d6f756e74206d757374206265203e20300000000000000000005f82015250565b5f6130c560178361238b565b91506130d082613091565b602082019050919050565b5f6020820190508181035f8301526130f2816130b9565b9050919050565b5f6131048287612643565b6014820191506131148286612663565b6020820191506131248285612663565b6020820191506131348284612663565b60208201915081905095945050505050565b7f496e76616c69642062616e6b207369676e6174757265000000000000000000005f82015250565b5f61317a60168361238b565b915061318582613146565b602082019050919050565b5f6020820190508181035f8301526131a78161316e565b9050919050565b7f42616e6b2068617320696e73756666696369656e74206c6971756964697479005f82015250565b5f6131e2601f8361238b565b91506131ed826131ae565b602082019050919050565b5f6020820190508181035f83015261320f816131d6565b9050919050565b5f6040820190506132295f83018561233f565b613236602083018461233f565b9392505050565b5f61324782612001565b915061325283612001565b925082820261326081612001565b9150828204841483151761327757613276612729565b5b5092915050565b7f4e487b71000000000000000000000000000000000000000000000000000000005f52601260045260245ffd5b5f6132b582612001565b91506132c083612001565b9250826132d0576132cf61327e565b5b828204905092915050565b7f4e487b71000000000000000000000000000000000000000000000000000000005f52602160045260245ffd5b5f819050919050565b61331a81613308565b82525050565b5f6020820190506133335f830184613311565b92915050565b5f60ff82169050919050565b61334e81613339565b82525050565b5f6080820190506133675f830187613311565b6133746020830186613345565b6133816040830185613311565b61338e6060830184613311565b9594505050505056fea2646970667358221220a9b080b3d879d0d1c90676e90c9279bec5c3729114407cdc48f2b6307b787bd464736f6c634300081c0033",
  "linkReferences": {},
  "deployedLinkReferences": {}
}